:100000000C9471000C9499000C9499000C94990034
:100010000C9499000C9499000C9499000C949900FC
:100020000C9499000C9499000C9499000C94F20390
:100030000C9499000C9499000C9499000C949900DC
:100040000C9450030C9499000C94C0030C949A03E4
:100050000C9499000C9499000C9499000C949900BC
:100060000C9499000C94990027048D040A059F05AF
:100070004E06FD066A07B40728089908E6086F09C6
:10008000E509420ADE0A00000000240027002A00D9
:1000900000000000250028002B00000000002300C5
:1000A00026002900040404040404040402020202D9
:1000B000020203030303030301020408102040802B
:1000C00001020408102001020408102000000008AA
:1000D000000201000003040700000000000000000F
:1000E000C70B11241FBECFEFD8E0DEBFCDBF11E09C
:1000F000A0E0B1E0E8EDFEE102C005900D92A83A63
:10010000B107D9F722E0A8EAB1E001C01D92A937F2
:10011000B207E1F710E0C1E7D0E004C02197FE018B
:100120000E94440FC037D107C9F70E94F40B0C940A
:100130006A0F0C940000FC01538D448D252F30E094
:10014000842F90E0821B930B541710F0CF960895E4
:1001500001970895FC01918D828D981761F0828D31
:10016000DF01A80FB11D5D968C91928D9F5F9F73EB
:10017000928F90E008958FEF9FEF0895FC01918D8D
:10018000828D981731F0828DE80FF11D858D90E0FA
:1001900008958FEF9FEF0895FC01918D228D892F97
:1001A00090E0805C9F4F821B91098F73992708957F
:1001B000FC01848DDF01A80FB11DA35ABF4F2C9104
:1001C000848D90E001968F739927848FA689B789D3
:1001D0002C93A089B1898C91837080648C93938DCA
:1001E000848D981306C00288F389E02D80818F7D6D
:1001F00080830895EF92FF920F931F93CF93DF9325
:10020000EC0181E0888F9B8D8C8D981305C0E88967
:10021000F989808185FD26C0F62E0B8D10E00F5FD9
:100220001F4F0F731127E02E8C8DE8120CC00FB6F4
:1002300007FCFACFE889F989808185FFF5CFCE01E7
:100240000E94D800F1CF8B8DFE01E80FF11DE35A1B
:10025000FF4FF0829FB7F8940B8FEA89FB8980816A
:1002600080620AC09FB7F894EE89FF896083E889AD
:10027000F98980818370806480839FBF81E090E0F2
:10028000DF91CF911F910F91FF90EF900895CF9341
:10029000DF93EC01888D8823C9F0EA89FB8980818E
:1002A00085FD05C0A889B9898C9186FD0FC00FB660
:1002B00007FCF5CF808185FFF2CFA889B9898C91A1
:1002C00085FFEDCFCE010E94D800E7CFDF91CF911F
:1002D00008958CED91E00E94CC0021E0892B09F477
:1002E00020E0822F089580E090E0892B29F00E9481
:1002F000690181110C9400000895833081F028F485
:10030000813099F08230A1F008958730A9F08830CB
:10031000B9F08430D1F4809180008F7D03C080914A
:1003200080008F7780938000089584B58F7702C016
:1003300084B58F7D84BD08958091B0008F7703C010
:100340008091B0008F7D8093B0000895CF93DF93AC
:10035000282F30E0F901E453FF4F8491F901E8546C
:10036000FF4FD491F901EC55FF4FC491CC2391F08C
:1003700081110E947D01EC2FF0E0EE0FFF1FE65689
:10038000FF4FA591B491EC91ED2381E090E021F431
:1003900080E002C080E090E0DF91CF9108951F934C
:1003A000CF93DF93282F30E0F901E453FF4F84917E
:1003B000F901E854FF4FD491F901EC55FF4FC49176
:1003C000CC23C1F0162F81110E947D01EC2FF0E0AB
:1003D000EE0FFF1FE057FF4FA591B4919FB7F89420
:1003E000111104C08C91D095D82302C0EC91DE2B62
:1003F000DC939FBFDF91CF911F910895CF93DF933F
:1004000090E0FC01E854FF4F2491FC01EC55FF4FB4
:100410008491882361F190E0880F991FFC01EA57CD
:10042000FF4FC591D491FC01E057FF4FA591B491C6
:10043000611109C09FB7F894888120958223888331
:10044000EC912E230BC0623061F49FB7F894888141
:10045000322F309583238883EC912E2B2C939FBFD2
:1004600006C08FB7F894E8812E2B28838FBFDF91C9
:10047000CF9108958E3008F08E50877080648093FD
:100480007C0080917A00806480937A0080917A0069
:1004900086FDFCCF809178002091790090E0922B2E
:1004A00008952FB7F8946091D8017091D901809187
:1004B000DA019091DB012FBF0895CF92DF92EF9286
:1004C000FF920F931F93CF93DF936C017A018B01FF
:1004D000C0E0D0E0CE15DF0581F0D8016D918D012F
:1004E000D601ED91FC910190F081E02DC6010995B6
:1004F000892B11F02196EECF7E01C701DF91CF91BC
:100500001F910F91FF90EF90DF90CF900895089585
:1005100080E090E00895CF93DF938091B10188232C
:1005200069F08091A8018F5F803119F08093A80154
:1005300002C01092A801C091A80102C0C0910A0196
:10054000D0E06C2F617087E00E94CF01BE017595ED
:100550006795617088E00E94CF01BE01759567952F
:1005600075956795617089E00E94CF0123E0D5956C
:10057000C7952A95E1F76C2F61708AE0DF91CF91E2
:100580000C94CF01009769F0FC0101900020E9F77D
:100590003197AF01481B590BBC018CED91E00C94D5
:1005A0005D0280E090E008958F929F92AF92BF929B
:1005B0000F931F93CF93DF93CDB7DEB7A1970FB6FD
:1005C000F894DEBF0FBECDBF19A2423008F44AE056
:1005D0008E010F5D1F4F842E912CA12CB12CA501F3
:1005E00094010E94EF0EE62FB901CA0101501109D2
:1005F000EA3014F4E05D01C0E95CD801EC93232BF0
:10060000242B252B61F7C8010E94C202A1960FB6C8
:10061000F894DEBF0FBECDBFDF91CF911F910F9138
:10062000BF90AF909F908F900895CF92DF92EF92FE
:10063000FF92CF93DF936B017C016DE28CED91E033
:100640000E94FA00EC0166277727CB016C197D091F
:100650008E099F094AE00E94D4028C0F9D1FDF91F2
:10066000CF91FF90EF90DF90CF900895CF93DF93DD
:100670000E94C202EC0180E291E00E94C2028C0F53
:100680009D1FDF91CF910895BC01990F880B990BA5
:1006900097FD0C9415034AE00C94D4020E94650F58
:1006A0001F920F920FB60F9211242F933F938F93A7
:1006B0009F93AF93BF938091D8019091D901A0915E
:1006C000DA01B091DB013091D70123E0230F2D3700
:1006D00020F40196A11DB11D05C026E8230F029646
:1006E000A11DB11D2093D7018093D8019093D9010A
:1006F000A093DA01B093DB018091D3019091D401F2
:10070000A091D501B091D6010196A11DB11D809394
:10071000D3019093D401A093D501B093D601BF919A
:10072000AF919F918F913F912F910F900FBE0F909E
:100730001F9018951F920F920FB60F9211242F93AE
:100740003F934F935F936F937F938F939F93AF9359
:10075000BF93EF93FF938CED91E00E94D800FF913F
:10076000EF91BF91AF919F918F917F916F915F9129
:100770004F913F912F910F900FBE0F901F901895A2
:100780001F920F920FB60F9211242F938F939F9366
:10079000EF93FF93E091EC01F091ED018081E09106
:1007A000F201F091F30182FD12C090818091F50178
:1007B0008F5F8F732091F601821751F0E091F50160
:1007C000F0E0E452FE4F958F8093F50101C08081E7
:1007D000FF91EF919F918F912F910F900FBE0F90EE
:1007E0001F9018951F920F920FB60F9211244F92DF
:1007F0005F926F927F928F929F92AF92BF92CF92B1
:10080000DF92EF92FF920F931F932F933F934F939B
:100810005F936F937F938F939F93AF93BF93EF9368
:10082000FF93E0910A018E2F90E0FC013197EF30A9
:10083000F10508F054C7EC5CFF4FC090AD01D090BB
:10084000AE01E090AF01F090B0010C94440F8091A4
:10085000C8019091C9010091C6011091C701209172
:10086000C4013091C5014091C8015091C901609106
:10087000C6017091C7012601370104C075946794C1
:10088000579447948A95D2F7F601E421F521D701D0
:10089000C60104C0B595A795979587950A95D2F797
:1008A0008C299D298E0F9F1F2F5F3F4F36014701D7
:1008B00004C095948794779467942A95D2F78621FB
:1008C00097219701860104C03595279517950795BF
:1008D0006A95D2F70C9DB0010D9D700D1C9D700D99
:1008E000112404C0F594E794D794C7944A95D2F79D
:1008F000C622D722C82AD92AD092AC01C092AB0115
:100900008AE090E090930501809304011092C10168
:100910001092C0018EE090E092C321E0C216D10493
:10092000E206F10464F080E090E0AFEFBFEF809367
:10093000AD019093AE01A093AF01B093B00180914F
:10094000AD019091AE01A091AF01B091B001609165
:10095000C4017091C5014091C8015091C901009135
:10096000C6011091C701E091C601F091C701209125
:10097000C8013091C9016C017D0104C0F594E79470
:10098000D794C7946A95D2F7052E000C660B770BA7
:100990004C295D296E297F296C017D010A2E04C036
:1009A000F594E794D794C7940A94D2F7C42AD52A29
:1009B000E62AF72A0C9DB0010D9D700D1C9D700D4F
:1009C0001124319604C0B595A79597958795EA951A
:1009D000D2F72F5F3F4F82239323860F971F909369
:1009E000AC018093AB018CE090E090930501809383
:1009F00004011092C1011092C00124E130E0309353
:100A000003012093020124E030E03093BF012093E2
:100A1000BE01D4C48091C4019091C501B701A60163
:100A200004C075956795579547958A95D2F79601B5
:100A300025723327242735278091C8019091C90159
:100A40002601370104C075946794579447948A959A
:100A5000D2F7D301C2018C259D258C0D9D1D40919F
:100A6000C8015091C9013601470104C0959487948B
:100A7000779467944A95D2F767286828692829F4FB
:100A800046E050E060E070E004C042E050E060E02A
:100A900070E0E091C601F091C7014601570104C022
:100AA000B594A79497948794EA95D2F74821592151
:100AB0006A217B21C49EF001C59EF00DD49EF00DED
:100AC00011248E1B9F0B46015701880C991CAA1CF0
:100AD000BB1C4091C6015091C701052E000C660B4E
:100AE000770B4C215D216E217F21452B462B472B17
:100AF00041F064E0F594E794D794C7946A95D1F7F0
:100B000007C05AE0F594E794D794C7945A95D1F763
:100B10008C209D2088269926282939293093AC01DC
:100B20002093AB018EE190E0909305018093040146
:100B300086E090E09093C1018093C001A2C0A09193
:100B4000C601B091C7010091C8011091C901E0919F
:100B5000C401F091C501A70196010E94E70EDC01D6
:100B6000CB0104C0B595A795979587950A95D2F7BF
:100B700025E230E02E1B3F0B2C213D21B9016827D7
:100B80007927D701C6011BE0B595A795979587955D
:100B90001A95D1F78C259D258C0D9D1D97018601F9
:100BA00046E035952795179507954A95D1F7012B7E
:100BB000022B032B49F48090C8019090C901092CA5
:100BC000000CAA08BB0805C0B2E08B2E912CA12C0A
:100BD000B12C4091C4015091C5012091C6013091C2
:100BE000C701240F351F2601370104C0759467948F
:100BF000579447942A95D2F784209520A620B720B1
:100C0000C89C9001C99C300DD89C300D1124821BCA
:100C1000930B97018601000F111F221F331F4601FE
:100C2000570146E084229924AA24BB2489288A28D3
:100C30008B2841F0F4E0F594E794D794C794FA95A3
:100C4000D1F70BC04091C4015091C50104C0F59487
:100C5000E794D794C7944A95D2F7C022D1228C2525
:100C60009D25682B792B7093AC016093AB018CE0D0
:100C700090E090930501809304011092C1011092BD
:100C8000C00180E190E090930301809302011092F3
:100C9000BF011092BE018AE090E019C5A091C40185
:100CA000B091C501E091C601F091C701A70196017D
:100CB0000E94E70EDC01CB0152E0B595A795979510
:100CC00087955A95D1F72EE130E02E1B3F0B2C2152
:100CD0003D21B901682779278091C6019091C7010C
:100CE0002601370104C075946794579447948A95F8
:100CF000D2F7D301C2018C259D258C0D9D1D970136
:100D00008601E6E03595279517950795EA95D1F781
:100D1000012B022B032B29F08090C8019090C90170
:100D200004C08090C4019090C5012091C801309109
:100D3000C9012601370104C07594679457944794FC
:100D40002A95D2F7092C000CAA08BB08842095200C
:100D5000A620B720C89C9001C99C300DD89C300DAE
:100D60001124821B930B97018601000F111F221F74
:100D7000331F8090C6019090C701092C000CAA086F
:100D8000BB088C209D20AE20BF2089288A288B2874
:100D900041F024E0F594E794D794C7942A95D1F7CD
:100DA0000BC04091C4015091C50104C0F594E79473
:100DB000D794C7944A95D2F70C211D2108271927EB
:100DC000602B712B7093AC016093AB0188E190E0D4
:100DD00090930501809304011092C1011092C0010B
:100DE00086E190E090930301809302011092BF018D
:100DF0001092BE0180E190E06AC42091C801309158
:100E0000C901A091C801B091C9010091C801109118
:100E1000C901E091C401F091C5018091C601909192
:100E2000C701B701A60104C0759567955795479509
:100E30002A95D2F7960124233523B701A60104C0D1
:100E400075956795579547950A95D2F74C215D2181
:100E5000420F531F9701860104C0359527951795BA
:100E60000795AA95D2F7401B510B9701860104C044
:100E70003595279517950795EA95D2F7092E000C19
:100E8000AA0BBB0B80239123A223B3238C9D90013B
:100E90008D9D300D9C9D300D1124420F531F50939A
:100EA000AC014093AB012AE030E030930501209380
:100EB000040183E090E09093C1018093C0014CE174
:100EC00050E050930301409302011092BF01109231
:100ED000BE01D3C28091C6019091C701360147017E
:100EE00004C095948794779467948A95D2F7D40137
:100EF000C3018C219D21AE21BF21892B8A2B8B2BF5
:100F000029F08091C8019091C9010CC08091C40161
:100F10009091C501F094E094D094C094C11CD11C70
:100F2000E11CF11C04C0F594E794D794C7948A950A
:100F3000D2F7D092AC01C092AB018AE090E09093DE
:100F40000501809304011092C1011092C00126E1B5
:100F500030E030930301209302019093BF0180930E
:100F6000BE0188E090E0B3C321E0C216D104E206DE
:100F7000F10464F080E090E0AFEFBFEF8093AD014B
:100F80009093AE01A093AF01B093B0018091AD01F9
:100F90009091AE01A091AF01B091B0016091C801F4
:100FA0007091C9014091C4015091C501E091C60101
:100FB000F091C7012091C6013091C7016C017D01FC
:100FC00004C0F594E794D794C7946A95D2F7052E98
:100FD000000C660B770B4C295D296E297F296C016B
:100FE0007D010A2E04C0F594E794D794C7940A941F
:100FF000D2F7C42AD52AE62AF72AEC9DB001ED9D46
:10100000700DFC9D700D11242F5F3F4F04C0B595EE
:10101000A795979587952A95D2F7860F971F909356
:10102000AC018093AB018CE090E09093050180933C
:1010300004011092C1011092C00184E190E09093EC
:101040000301809302011092BF011092BE013FC3C1
:101050004091C8015091C9016091C8017091C901C6
:101060002091C4013091C5018091C6019091C701C2
:10107000A091C401B091C501262337232601370171
:1010800004C075946794579447942A95D2F79301B6
:1010900082013601470104C0959487947794679440
:1010A0004A95D2F706291729282939290C9DF001DC
:1010B0000D9DF00D1C9DF00D11247727F7FC7A95FE
:1010C0006F2D5E2D4D2D48235923CF018423952369
:1010D000B701A60104C07595679557954795AA95E0
:1010E000D2F74C215D2116E0F594E794D794C7948C
:1010F0001A95D1F7C42AD52AC826D926D092AC0190
:10110000C092AB0180E190E09093050180930401CF
:101110001092C1011092C00186E590E09093030106
:10112000809302011092BF011092BE018AE190E00B
:10113000CEC24091C4015091C5018091C8019091E7
:10114000C9012091C6013091C7014601570104C071
:10115000B594A794979487944A95D2F747E0489D11
:10116000B001499D700D11244601570104C0B5948A
:10117000A794979487948A95D2F7D501C401E3E0A8
:10118000880F991FEA95E1F7862B972B46015701A7
:1011900004C0B594A794979487942A95D2F7489D54
:1011A0009001499D300D1124822B932BF7E0F5948B
:1011B000E794D794C794FA95D1F7C822D922D09250
:1011C000AC01C092AB0188E090E06DC28091C80193
:1011D0009091C9014091C6015091C7012091C4016D
:1011E0003091C501A090C601B090C7010091C40123
:1011F0001091C50160E870E0641B750BE9E0F0E058
:10120000AF01421B530B2601370104C0759467944C
:10121000579447944A95D2F702C0660F771F4A94B5
:10122000E2F70E94300FA701960104C0559547953B
:10123000379527958A95D2F7D5010E94E70E9B0135
:10124000AC01C701B6010E94200F4B015C01D8011F
:10125000A70196010E94E70EDC01CB0154E0880F44
:10126000991FAA1FBB1F5A95D1F78C9D90018D9D88
:10127000300D9C9D300D1124D501C40104C0B595DD
:10128000A795979587952A95D2F762E1B595A79589
:10129000979587956A95D1F79093AC018093AB01B0
:1012A00080E190E0909305018093040184E090E058
:1012B0009093C1018093C00186E190E09093030177
:1012C0008093020181E090E09093BF018093BE0182
:1012D000F0930101E093000182E090E06AC1409147
:1012E000C8015091C9018090C6019090C701A0909B
:1012F000C401B090C5012091C6013091C701809111
:10130000C4019091C501A091C601B091C7015CE0F4
:101310005C9DF0015D9DF00D11242601370104C094
:1013200075946794579447944A95D2F78F01042196
:1013300015218C9CF0018D9CF00D9C9CF00D1124CE
:10134000B701A60104C07595679557954795AA946E
:10135000D2F74E235F23F801E42BF52BBD01660F76
:10136000771F660F771F0E94300F2C9DC0012D9DA7
:10137000900D3C9D900D1124682379236E2B7F2BBB
:10138000625071097093AC016093AB0182E190E00F
:1013900090930501809304011092C1011092C00145
:1013A00088E090E0909303018093020181E090E057
:1013B0009093BF018093BE018EE090E09093010175
:1013C0008093000185E090E0F4C08091C801909185
:1013D000C901A091C601B091C701E091C401F0918B
:1013E000C501B701A60104C0759567955795479546
:1013F0008A95D2F74C9D80014D9D100D5C9D100D7E
:101400001124A70196010E94E70EDC01CB0127E021
:10141000B595A795979587952A95D1F7B801682333
:10142000792333E0CC0CDD1CEE1CFF1C3A95D1F780
:1014300004C0F594E794D794C794EA95D2F7C622EE
:10144000D722D092AC01C092AB0182E190E09093A0
:101450000501809304012AE030E03093C10120931C
:10146000C0018EE090E0909303018093020181E03F
:1014700090E09093BF018093BE01309301012093CF
:10148000000197C08091C4019091C50136014701C8
:1014900004C095948794779467948A95D2F79601BF
:1014A0002170332726253725D701C601E5E1B595FB
:1014B000A79597958795EA95D1F78C259D258C0D55
:1014C0009D1DB701A601F4E0759567955795479561
:1014D000FA95D1F7411551056105710529F0809004
:1014E000C6019090C70104C08090C8019090C901C6
:1014F000A091C801B091C901B595A795ECE0F0E0C5
:10150000EA1BFB0B2601370104C0759467945794BE
:101510004794EA95D2F7092C000CAA08BB0884204E
:101520009520A620B720C89CF001C99CF00DD89C3E
:10153000F00D11248E1B9F0B46015701880C991C3E
:10154000AA1CBB1CE091C801F091C901EC70FF27F7
:10155000EF2B11F06A0107C04AE0F594E794D794A5
:10156000C7944A95D1F78C209D2088259925282B52
:10157000392B3093AC012093AB0188E090E090933D
:101580000501809304011092C1011092C00180E115
:1015900090E090930301809302011092BF0110929A
:1015A000BE0181E090E0909301018093000186E00C
:1015B00090E09093BD018093BC0191C02091C40143
:1015C0003091C50184E090E002C0880F991F2A95F0
:1015D000E2F7092E000CAA0BBB0B8C219D21AE213A
:1015E000BF21892B8A2B8B2B51F12091C601309181
:1015F000C7010091C6011091C701032E000C440BD6
:10160000550BC701B6010E94BD0E9B01AC012C25F4
:101610003D254E255F25C701B6010E94200F04C05D
:10162000F594E794D794C7940A95D2F7C62AD72A97
:10163000E82AF92AF594E794D794C7942EC08091AC
:10164000C8019091C9014601570104C0B594A794FF
:10165000979487948A95D2F7D501C4014091C4012B
:101660005091C5012091C6013091C70102C0440FBD
:10167000551F2A95E2F7052E000C660B770B4C21BF
:101680005D216E217F21452B462B472B21F0CC0C71
:10169000DD1CEE1CFF1CC82AD92AD092AC01C092D6
:1016A000AB0180E190E090930501809304011092DA
:1016B000C1011092C00186E190E0909303018093F4
:1016C00002011092BF011092BE018DE090E0909354
:1016D0000101809300011092BD011092BC01809124
:1016E000AB019091AC018093B30080910601909181
:1016F0000701092E000CAA0BBB0B4091AD015091C4
:10170000AE016091AF017091B001840F951FA61FCB
:10171000B71F8093AD019093AE01A093AF01B0933A
:10172000B0018091A9019091AA010196811524E050
:10173000920729F09093AA018093A90109C0109201
:10174000AA011092A9018091B10181110E948B021E
:10175000FF91EF91BF91AF919F918F917F916F9189
:101760005F914F913F912F911F910F91FF90EF90BB
:10177000DF90CF90BF90AF909F908F907F906F90B1
:101780005F904F900F900FBE0F901F901895ECED4B
:10179000F1E01382128288EE93E0A0E0B0E084834F
:1017A0009583A683B78382E191E09183808385EC62
:1017B00090E09587848784EC90E09787868780EC1B
:1017C00090E0918B808B81EC90E0938B828B82EC0C
:1017D00090E0958B848B86EC90E0978B868B118EB6
:1017E000128E138E148E0895789484B5826084BD11
:1017F00084B5816084BD85B5826085BD85B5816015
:1018000085BD80916E00816080936E001092810092
:10181000809181008260809381008091810081604D
:10182000809381008091800081608093800080910E
:10183000B10084608093B1008091B000816080939A
:10184000B00080917A00846080937A0080917A0061
:10185000826080937A0080917A00816080937A0020
:1018600080917A00806880937A001092C10061E0D4
:101870008DE00E94FE0162E084E00E94FE0162E0D1
:1018800082E00E94FE0161E08BE00E94FE018091F7
:10189000B6008F798093B6008091B000836080930A
:1018A000B0008091B100877F8093B1008091B0003B
:1018B0008F7B80688093B0008091B0008F7C809394
:1018C000B0008091B100887F81608093B100109258
:1018D000B300F89480918100877E886080938100B6
:1018E000809180008C7F8093800080918100887F30
:1018F00081608093810020910C0130910D01032EB5
:10190000000C440B550B60E074E284EF90E00E9401
:10191000BD0E309389002093880080916F00826013
:1019200080936F007894C1E0D0E1CC24CA9483E026
:10193000D82EE12CF12C22242394312C812C24E26A
:10194000922E24EFA22EB12C84E00E94A6012091B9
:10195000C301892B41F521110CC0C093C3010E9422
:1019600051026093B8017093B9018093BA019093CA
:10197000BB010E9451020091B8011091B901209160
:10198000BA013091BB01DC01CB01801B910BA20B92
:10199000B30B893E9340A105B105A8F18091B70131
:1019A000811131C0DCC1222371F18091B7018823FC
:1019B00061F01092B70183E291E00E9436038091BA
:1019C0000B018C2780930B011CC080910A01803190
:1019D00021F08F5F80930A0102C0C0930A0186E361
:1019E00091E00E94C20260910A0170E080E090E004
:1019F0004AE00E94D40280E291E00E94C2020E946A
:101A00008B021092C30182E00E94A6012091C201C4
:101A1000892B41F521110CC0C093C2010E945102D3
:101A20006093B3017093B4018093B5019093B601B4
:101A30000E9451020091B3011091B4012091B501AF
:101A40003091B601DC01CB01801B910BA20BB30BD3
:101A5000893E9340A105B10548F18091B201811101
:101A600025C084C1222311F18091B201882361F045
:101A70001092B20180E491E00E9436038091B1019E
:101A80008C278093B10112C080910A01882321F034
:101A9000815080930A0102C0D0930A018CE591E045
:101AA0000E9436030E948B021092C2018091C301F2
:101AB00081117CC08091C2018111B8C000910401E4
:101AC000109105014090C0015090C101052C000CFF
:101AD000660877080E943A02A801110F660B770B7F
:101AE0009A01AB012419350946095709DC010E9406
:101AF000E70EA70196010E94BD0E420E531E641E02
:101B0000751E5092C9014092C801009102011091C6
:101B100003014090BE015090BF01052C000C6608E7
:101B2000770881E00E943A02A801110F660B770B3B
:101B30009A01AB012419350946095709DC010E94B5
:101B4000E70EA70196010E94BD0E420E531E641EB1
:101B5000751E5092C7014092C6010091000110917C
:101B600001014090BC015090BD01052C000C66089D
:101B7000770882E00E943A02A801110F660B770BEA
:101B80009A01AB012419350946095709DC010E9465
:101B9000E70EA70196010E94BD0E420E531E641E61
:101BA000751E5092C5014092C40140C080E00E9461
:101BB0003A022EE030E0DC010E944A0FA7019601B4
:101BC0000E94BD0EBA01A90147505109610971096E
:101BD00080910801909109018417950721F0509395
:101BE0000701409306015093090140930801809139
:101BF000060190910701892B21F430920701209270
:101C0000060181E00E943A0220E03FE3DC010E94ED
:101C10004A0FA70196010E94BD0EDA01C9019F5F1C
:101C2000AF4FBF4F90930D0180930C010E94510262
:101C30000091CF011091D0012091D1013091D201BA
:101C400008511C4F2F4F3F4F06171707280739071A
:101C500008F046C00E9451026093CF017093D001FA
:101C60008093D1019093D20180910B018823C1F11F
:101C700060910A0170E080E090E04AE00E94D402A6
:101C800080E291E00E94C20281E791E00E94C202DC
:101C90008091C8019091C9010E94440385E791E0B9
:101CA0000E94C2028091C6019091C7010E94440324
:101CB0008AE791E00E94C2026091C4017091C5015F
:101CC000072E000C880B990B97FF03C00E94150389
:101CD00003C04AE00E94D40280E291E00E94C20266
:101CE0008091CE01882381F061E08DE00E94CF01D8
:101CF0001092CE010E9451026093CA017093CB01F1
:101D00008093CC019093CD010E9451020091CA01B1
:101D10001091CB012091CC013091CD01DC01CB01A0
:101D2000801B910BA20BB30B0B97A105B10520F003
:101D300060E08DE00E94CF0120910C0130910D01F7
:101D4000032E000C440B550BC501B4010E94BD0EBF
:101D500030938900209388000E947301F5CDC093D1
:101D6000B7018FE791E00E9436034DCEC093B201D8
:101D70008FE891E00E94360399CE052E97FB1EF462
:101D800000940E94D40E57FD07D00E94EF0E07FC6E
:101D900003D04EF40C94D40E509540953095219577
:101DA0003F4F4F4F5F4F0895909580957095619587
:101DB0007F4F8F4F9F4F08950E94110FA59F900D49
:101DC000B49F900DA49F800D911D11240895B7FF1D
:101DD0000C94DC0E0E94DC0E821B930B0895A1E292
:101DE0001A2EAA1BBB1BFD010DC0AA1FBB1FEE1F95
:101DF000FF1FA217B307E407F50720F0A21BB30BE0
:101E0000E40BF50B661F771F881F991F1A9469F75B
:101E100060957095809590959B01AC01BD01CF01B7
:101E20000895A29FB001B39FC001A39F700D811DB3
:101E30001124911DB29F700D811D1124911D0895D3
:101E4000DB018F939F930E94DC0EBF91AF91A29F05
:101E5000800D911DA39F900DB29F900D11240895A8
:101E600097FB072E16F4009407D077FD09D00E9447
:101E7000510F07FC05D03EF4909581959F4F089532
:101E8000709561957F4F0895EE0FFF1F0590F491B7
:101E9000E02D09940E94110FB7FF0895821B930B48
:101EA0000895AA1BBB1B51E107C0AA1FBB1FA617A1
:101EB000B70710F0A61BB70B881F991F5A95A9F7F3
:101EC00080959095BC01CD01089581E090E0F89453
:081ED0000C946A0FF894FFCF97
:101ED800630063006300010001000E010040000080
:101EE8000000FA005D029B004701CC00AA00BE007A
:101EF8000D0A006C6F6E672070726573732052450F
:101F08004C454153450050524F4752414D3A2000ED
:101F18006C6F6E672070726573732072656C656193
:101F2800736520627574746F6E20320073686F7207
:101F38007420707265737320627574746F6E2032CA
:101F480000413A200020423A200020433A20006C09
:101F58006F6E67207072657373204F564552006C20
:101F68006F6E67207072657373204F5645522062FA
:081F78007574746F6E203200D5
:00000001FF
