:100000000C9471000C9499000C9499000C94990034
:100010000C9499000C9499000C9499000C949900FC
:100020000C9499000C9499000C9499000C94F20390
:100030000C9499000C9499000C9499000C949900DC
:100040000C9450030C9499000C94C0030C949A03E4
:100050000C9499000C9499000C9499000C949900BC
:100060000C9499000C94990027048D040A059F05AF
:100070004E06FD066A07B40728089908E6086F09C6
:10008000E509420ADE0A00000000240027002A00D9
:1000900000000000250028002B00000000002300C5
:1000A00026002900040404040404040402020202D9
:1000B000020203030303030301020408102040802B
:1000C00001020408102001020408102000000008AA
:1000D000000201000003040700000000000000000F
:1000E0005D0E11241FBECFEFD8E0DEBFCDBF11E003
:1000F000A0E0B1E0E4E6FEE102C005900D92A23A74
:10010000B107D9F722E0A2EAB1E001C01D92A337FE
:10011000B207E1F710E0C1E7D0E004C02197FE018B
:100120000E94110FC037D107C9F70E94C50B0C946C
:10013000300F0C940000833081F028F4813099F066
:100140008230A1F008958730A9F08830B9F084306A
:10015000D1F4809180008F7D03C0809180008F77E3
:1001600080938000089584B58F7702C084B58F7D19
:1001700084BD08958091B0008F7703C08091B00056
:100180008F7D8093B0000895CF93DF93282F30E0C8
:10019000F901E453FF4F8491F901E854FF4FD491E2
:1001A000F901EC55FF4FC491CC2391F081110E94CD
:1001B0009B00EC2FF0E0EE0FFF1FE656FF4FA591DE
:1001C000B491EC91ED2381E090E021F480E002C055
:1001D00080E090E0DF91CF9108951F93CF93DF935C
:1001E000282F30E0F901E453FF4F8491F901E854DE
:1001F000FF4FD491F901EC55FF4FC491CC23C1F0CE
:10020000162F81110E949B00EC2FF0E0EE0FFF1FD4
:10021000E057FF4FA591B4919FB7F894111104C016
:100220008C91D095D82302C0EC91DE2BDC939FBF3C
:10023000DF91CF911F910895CF93DF9390E0FC0160
:10024000E854FF4F2491FC01EC55FF4F8491882323
:1002500061F190E0880F991FFC01EA57FF4FC591AB
:10026000D491FC01E057FF4FA591B491611109C0F1
:100270009FB7F8948881209582238883EC912E2360
:100280000BC0623061F49FB7F8948881322F3095AB
:1002900083238883EC912E2B2C939FBF06C08FB7AE
:1002A000F894E8812E2B28838FBFDF91CF9108959A
:1002B0008E3008F08E508770806480937C0080912F
:1002C0007A00806480937A0080917A0086FDFCCF6A
:1002D000809178002091790090E0922B08952FB7BB
:1002E000F8946091D2017091D3018091D4019091E2
:1002F000D5012FBF0895CF92DF92EF92FF920F9317
:100300001F93CF93DF936C017A018B01C0E0D0E0A3
:10031000CE15DF0581F0D8016D918D01D601ED91EB
:10032000FC910190F081E02DC6010995892B11F017
:100330002196EECF7E01C701DF91CF911F910F91E2
:10034000FF90EF90DF90CF900895089580E090E0C7
:100350000895FC01538D448D252F30E0842F90E0CB
:10036000821B930B541710F0CF96089501970895B0
:10037000FC01918D828D981761F0828DDF01A80FAD
:10038000B11D5D968C91928D9F5F9F73928F90E0CF
:1003900008958FEF9FEF0895FC01918D828D98173E
:1003A00031F0828DE80FF11D858D90E008958FEF7B
:1003B0009FEF0895FC01918D228D892F90E0805C44
:1003C0009F4F821B91098F739927089586ED91E0C5
:1003D0000E94DA0121E0892B09F420E0822F0895A0
:1003E000FC01848DDF01A80FB11DA35ABF4F2C91D2
:1003F000848D90E001968F739927848FA689B789A1
:100400002C93A089B1898C91837080648C93938D97
:10041000848D981306C00288F389E02D80818F7D3A
:1004200080830895EF92FF920F931F93CF93DF93F2
:10043000EC0181E0888F9B8D8C8D981305C0E88935
:10044000F989808185FD26C0F62E0B8D10E00F5FA7
:100450001F4F0F731127E02E8C8DE8120CC00FB6C2
:1004600007FCFACFE889F989808185FFF5CFCE01B5
:100470000E94F001F1CF8B8DFE01E80FF11DE35AD0
:10048000FF4FF0829FB7F8940B8FEA89FB89808138
:1004900080620AC09FB7F894EE89FF896083E8897B
:1004A000F98980818370806480839FBF81E090E0C0
:1004B000DF91CF911F910F91FF90EF900895CF930F
:1004C000DF93EC01888D8823C9F0EA89FB8980815C
:1004D00085FD05C0A889B9898C9186FD0FC00FB62E
:1004E00007FCF5CF808185FFF2CFA889B9898C916F
:1004F00085FFEDCFCE010E94F001E7CFDF91CF91D4
:10050000089580E090E0892B29F00E94E601811196
:100510000C9400000895CF93DF938091AB01882362
:1005200069F08091A2018F5F803119F08093A20160
:1005300002C01092A201C091A20102C0C0910601A6
:10054000D0E06C2F617087E00E94ED00BE017595D0
:100550006795617088E00E94ED00BE017595679512
:1005600075956795617089E00E94ED0023E0D5954F
:10057000C7952A95E1F76C2F61708AE0DF91CF91E2
:100580000C94ED00009769F0FC0101900020E9F760
:100590003197AF01481B590BBC0186ED91E00C94DB
:1005A0007B0180E090E008958F929F92AF92BF927E
:1005B0000F931F93CF93DF93CDB7DEB7A1970FB6FD
:1005C000F894DEBF0FBECDBF19A2423008F44AE056
:1005D0008E010F5D1F4F842E912CA12CB12CA501F3
:1005E00094010E94BC0EE62FB901CA010150110905
:1005F000EA3014F4E05D01C0E95CD801EC93232BF0
:10060000242B252B61F7C8010E94C202A1960FB6C8
:10061000F894DEBF0FBECDBFDF91CF911F910F9138
:10062000BF90AF909F908F900895CF92DF92EF92FE
:10063000FF92CF93DF936B017C016DE286ED91E039
:100640000E941202EC0166277727CB016C197D0905
:100650008E099F094AE00E94D4028C0F9D1FDF91F2
:10066000CF91FF90EF90DF90CF900895CF93DF93DD
:100670000E94C202EC018AE191E00E94C2028C0F4A
:100680009D1FDF91CF910895BC01990F880B990BA5
:1006900097FD0C9415034AE00C94D4020E942B0F92
:1006A0001F920F920FB60F9211242F933F938F93A7
:1006B0009F93AF93BF938091D2019091D301A0916A
:1006C000D401B091D5013091D10123E0230F2D3712
:1006D00020F40196A11DB11D05C026E8230F029646
:1006E000A11DB11D2093D1018093D2019093D3011C
:1006F000A093D401B093D5018091CD019091CE010A
:10070000A091CF01B091D0010196A11DB11D8093A0
:10071000CD019093CE01A093CF01B093D001BF91B2
:10072000AF919F918F913F912F910F900FBE0F909E
:100730001F9018951F920F920FB60F9211242F93AE
:100740003F934F935F936F937F938F939F93AF9359
:10075000BF93EF93FF9386ED91E00E94F001FF912C
:10076000EF91BF91AF919F918F917F916F915F9129
:100770004F913F912F910F900FBE0F901F901895A2
:100780001F920F920FB60F9211242F938F939F9366
:10079000EF93FF93E091E601F091E7018081E09112
:1007A000EC01F091ED0182FD12C090818091EF018A
:1007B0008F5F8F732091F001821751F0E091EF016C
:1007C000F0E0EA52FE4F958F8093EF0101C08081E7
:1007D000FF91EF919F918F912F910F900FBE0F90EE
:1007E0001F9018951F920F920FB60F9211244F92DF
:1007F0005F926F927F928F929F92AF92BF92CF92B1
:10080000DF92EF92FF920F931F932F933F934F939B
:100810005F936F937F938F939F93AF93BF93EF9368
:10082000FF93E09106018E2F90E0FC013197EF30AD
:10083000F10508F054C7EC5CFF4FC090A701D090C1
:10084000A801E090A901F090AA010C94110F8091E9
:10085000C2019091C3010091C0011091C10120918A
:10086000BE013091BF014091C2015091C30160911E
:10087000C0017091C1012601370104C075946794CD
:10088000579447948A95D2F7F601E421F521D701D0
:10089000C60104C0B595A795979587950A95D2F797
:1008A0008C299D298E0F9F1F2F5F3F4F36014701D7
:1008B00004C095948794779467942A95D2F78621FB
:1008C00097219701860104C03595279517950795BF
:1008D0006A95D2F70C9DB0010D9D700D1C9D700D99
:1008E000112404C0F594E794D794C7944A95D2F79D
:1008F000C622D722C82AD92AD092A601C092A50121
:100900008AE090E090930501809304011092BB016E
:100910001092BA018EE090E092C321E0C216D10499
:10092000E206F10464F080E090E0AFEFBFEF809367
:10093000A7019093A801A093A901B093AA01809167
:10094000A7019091A801A091A901B091AA0160917D
:10095000BE017091BF014091C2015091C30100914D
:10096000C0011091C101E091C001F091C10120913D
:10097000C2013091C3016C017D0104C0F594E7947C
:10098000D794C7946A95D2F7052E000C660B770BA7
:100990004C295D296E297F296C017D010A2E04C036
:1009A000F594E794D794C7940A94D2F7C42AD52A29
:1009B000E62AF72A0C9DB0010D9D700D1C9D700D4F
:1009C0001124319604C0B595A79597958795EA951A
:1009D000D2F72F5F3F4F82239323860F971F909369
:1009E000A6018093A5018CE090E09093050180938F
:1009F00004011092BB011092BA0124E130E030935F
:100A000003012093020124E030E03093B9012093E8
:100A1000B801D4C48091BE019091BF01B701A60175
:100A200004C075956795579547958A95D2F79601B5
:100A300025723327242735278091C2019091C30165
:100A40002601370104C075946794579447948A959A
:100A5000D2F7D301C2018C259D258C0D9D1D40919F
:100A6000C2015091C3013601470104C09594879497
:100A7000779467944A95D2F767286828692829F4FB
:100A800046E050E060E070E004C042E050E060E02A
:100A900070E0E091C001F091C1014601570104C02E
:100AA000B594A79497948794EA95D2F74821592151
:100AB0006A217B21C49EF001C59EF00DD49EF00DED
:100AC00011248E1B9F0B46015701880C991CAA1CF0
:100AD000BB1C4091C0015091C101052E000C660B5A
:100AE000770B4C215D216E217F21452B462B472B17
:100AF00041F064E0F594E794D794C7946A95D1F7F0
:100B000007C05AE0F594E794D794C7945A95D1F763
:100B10008C209D2088269926282939293093A601E2
:100B20002093A5018EE190E090930501809304014C
:100B300086E090E09093BB018093BA01A2C0A0919F
:100B4000C001B091C1010091C2011091C301E091B7
:100B5000BE01F091BF01A70196010E94B40EDC0115
:100B6000CB0104C0B595A795979587950A95D2F7BF
:100B700025E230E02E1B3F0B2C213D21B9016827D7
:100B80007927D701C6011BE0B595A795979587955D
:100B90001A95D1F78C259D258C0D9D1D97018601F9
:100BA00046E035952795179507954A95D1F7012B7E
:100BB000022B032B49F48090C2019090C301092CB1
:100BC000000CAA08BB0805C0B2E08B2E912CA12C0A
:100BD000B12C4091BE015091BF012091C0013091D4
:100BE000C101240F351F2601370104C07594679495
:100BF000579447942A95D2F784209520A620B720B1
:100C0000C89C9001C99C300DD89C300D1124821BCA
:100C1000930B97018601000F111F221F331F4601FE
:100C2000570146E084229924AA24BB2489288A28D3
:100C30008B2841F0F4E0F594E794D794C794FA95A3
:100C4000D1F70BC04091BE015091BF0104C0F59493
:100C5000E794D794C7944A95D2F7C022D1228C2525
:100C60009D25682B792B7093A6016093A5018CE0DC
:100C700090E090930501809304011092BB011092C3
:100C8000BA0180E190E090930301809302011092F9
:100C9000B9011092B8018AE090E019C5A091BE0197
:100CA000B091BF01E091C001F091C101A70196018F
:100CB0000E94B40EDC01CB0152E0B595A795979543
:100CC00087955A95D1F72EE130E02E1B3F0B2C2152
:100CD0003D21B901682779278091C0019091C10118
:100CE0002601370104C075946794579447948A95F8
:100CF000D2F7D301C2018C259D258C0D9D1D970136
:100D00008601E6E03595279517950795EA95D1F781
:100D1000012B022B032B29F08090C2019090C3017C
:100D200004C08090BE019090BF012091C20130911B
:100D3000C3012601370104C0759467945794479402
:100D40002A95D2F7092C000CAA08BB08842095200C
:100D5000A620B720C89C9001C99C300DD89C300DAE
:100D60001124821B930B97018601000F111F221F74
:100D7000331F8090C0019090C101092C000CAA087B
:100D8000BB088C209D20AE20BF2089288A288B2874
:100D900041F024E0F594E794D794C7942A95D1F7CD
:100DA0000BC04091BE015091BF0104C0F594E7947F
:100DB000D794C7944A95D2F70C211D2108271927EB
:100DC000602B712B7093A6016093A50188E190E0E0
:100DD00090930501809304011092BB011092BA0117
:100DE00086E190E090930301809302011092B90193
:100DF0001092B80180E190E06AC42091C201309164
:100E0000C301A091C201B091C3010091C201109130
:100E1000C301E091BE01F091BF018091C0019091AA
:100E2000C101B701A60104C075956795579547950F
:100E30002A95D2F7960124233523B701A60104C0D1
:100E400075956795579547950A95D2F74C215D2181
:100E5000420F531F9701860104C0359527951795BA
:100E60000795AA95D2F7401B510B9701860104C044
:100E70003595279517950795EA95D2F7092E000C19
:100E8000AA0BBB0B80239123A223B3238C9D90013B
:100E90008D9D300D9C9D300D1124420F531F50939A
:100EA000A6014093A5012AE030E03093050120938C
:100EB000040183E090E09093BB018093BA014CE180
:100EC00050E050930301409302011092B901109237
:100ED000B801D3C28091C0019091C1013601470190
:100EE00004C095948794779467948A95D2F7D40137
:100EF000C3018C219D21AE21BF21892B8A2B8B2BF5
:100F000029F08091C2019091C3010CC08091BE0173
:100F10009091BF01F094E094D094C094C11CD11C76
:100F2000E11CF11C04C0F594E794D794C7948A950A
:100F3000D2F7D092A601C092A5018AE090E09093EA
:100F40000501809304011092BB011092BA0126E1C1
:100F500030E030930301209302019093B901809314
:100F6000B80188E090E0B3C321E0C216D104E206E4
:100F7000F10464F080E090E0AFEFBFEF8093A70151
:100F80009093A801A093A901B093AA018091A70111
:100F90009091A801A091A901B091AA016091C2010C
:100FA0007091C3014091BE015091BF01E091C00119
:100FB000F091C1012091C0013091C1016C017D010E
:100FC00004C0F594E794D794C7946A95D2F7052E98
:100FD000000C660B770B4C295D296E297F296C016B
:100FE0007D010A2E04C0F594E794D794C7940A941F
:100FF000D2F7C42AD52AE62AF72AEC9DB001ED9D46
:10100000700DFC9D700D11242F5F3F4F04C0B595EE
:10101000A795979587952A95D2F7860F971F909356
:10102000A6018093A5018CE090E090930501809348
:1010300004011092BB011092BA0184E190E09093F8
:101040000301809302011092B9011092B8013FC3CD
:101050004091C2015091C3016091C2017091C301DE
:101060002091BE013091BF018091C0019091C101DA
:10107000A091BE01B091BF0126233723260137017D
:1010800004C075946794579447942A95D2F79301B6
:1010900082013601470104C0959487947794679440
:1010A0004A95D2F706291729282939290C9DF001DC
:1010B0000D9DF00D1C9DF00D11247727F7FC7A95FE
:1010C0006F2D5E2D4D2D48235923CF018423952369
:1010D000B701A60104C07595679557954795AA95E0
:1010E000D2F74C215D2116E0F594E794D794C7948C
:1010F0001A95D1F7C42AD52AC826D926D092A60196
:10110000C092A50180E190E09093050180930401D5
:101110001092BB011092BA0186E590E09093030112
:10112000809302011092B9011092B8018AE190E017
:10113000CEC24091BE015091BF018091C2019091F9
:10114000C3012091C0013091C1014601570104C083
:10115000B594A794979487944A95D2F747E0489D11
:10116000B001499D700D11244601570104C0B5948A
:10117000A794979487948A95D2F7D501C401E3E0A8
:10118000880F991FEA95E1F7862B972B46015701A7
:1011900004C0B594A794979487942A95D2F7489D54
:1011A0009001499D300D1124822B932BF7E0F5948B
:1011B000E794D794C794FA95D1F7C822D922D09250
:1011C000A601C092A50188E090E06DC28091C201A5
:1011D0009091C3014091C0015091C1012091BE0185
:1011E0003091BF01A090C001B090C1010091BE013B
:1011F0001091BF0160E870E0641B750BE9E0F0E05E
:10120000AF01421B530B2601370104C0759467944C
:10121000579447944A95D2F702C0660F771F4A94B5
:10122000E2F70E94FD0EA701960104C0559547956F
:10123000379527958A95D2F7D5010E94B40E9B0168
:10124000AC01C701B6010E94ED0E4B015C01D80153
:10125000A70196010E94B40EDC01CB0154E0880F77
:10126000991FAA1FBB1F5A95D1F78C9D90018D9D88
:10127000300D9C9D300D1124D501C40104C0B595DD
:10128000A795979587952A95D2F762E1B595A79589
:10129000979587956A95D1F79093A6018093A501BC
:1012A00080E190E0909305018093040184E090E058
:1012B0009093BB018093BA0186E190E09093030183
:1012C0008093020181E090E09093B9018093B8018E
:1012D000F0930101E093000182E090E06AC1409147
:1012E000C2015091C3018090C0019090C101A090B3
:1012F000BE01B090BF012091C0013091C101809129
:10130000BE019091BF01A091C001B091C1015CE00C
:101310005C9DF0015D9DF00D11242601370104C094
:1013200075946794579447944A95D2F78F01042196
:1013300015218C9CF0018D9CF00D9C9CF00D1124CE
:10134000B701A60104C07595679557954795AA946E
:10135000D2F74E235F23F801E42BF52BBD01660F76
:10136000771F660F771F0E94FD0E2C9DC0012D9DDB
:10137000900D3C9D900D1124682379236E2B7F2BBB
:10138000625071097093A6016093A50182E190E01B
:1013900090930501809304011092BB011092BA0151
:1013A00088E090E0909303018093020181E090E057
:1013B0009093B9018093B8018EE090E09093010181
:1013C0008093000185E090E0F4C08091C20190918B
:1013D000C301A091C001B091C101E091BE01F091A3
:1013E000BF01B701A60104C075956795579547954C
:1013F0008A95D2F74C9D80014D9D100D5C9D100D7E
:101400001124A70196010E94B40EDC01CB0127E054
:10141000B595A795979587952A95D1F7B801682333
:10142000792333E0CC0CDD1CEE1CFF1C3A95D1F780
:1014300004C0F594E794D794C794EA95D2F7C622EE
:10144000D722D092A601C092A50182E190E09093AC
:101450000501809304012AE030E03093BB01209322
:10146000BA018EE090E0909303018093020181E045
:1014700090E09093B9018093B801309301012093DB
:10148000000197C08091BE019091BF0136014701D4
:1014900004C095948794779467948A95D2F79601BF
:1014A0002170332726253725D701C601E5E1B595FB
:1014B000A79597958795EA95D1F78C259D258C0D55
:1014C0009D1DB701A601F4E0759567955795479561
:1014D000FA95D1F7411551056105710529F0809004
:1014E000C0019090C10104C08090C2019090C301DE
:1014F000A091C201B091C301B595A795ECE0F0E0D1
:10150000EA1BFB0B2601370104C0759467945794BE
:101510004794EA95D2F7092C000CAA08BB0884204E
:101520009520A620B720C89CF001C99CF00DD89C3E
:10153000F00D11248E1B9F0B46015701880C991C3E
:10154000AA1CBB1CE091C201F091C301EC70FF2703
:10155000EF2B11F06A0107C04AE0F594E794D794A5
:10156000C7944A95D1F78C209D2088259925282B52
:10157000392B3093A6012093A50188E090E0909349
:101580000501809304011092BB011092BA0180E121
:1015900090E090930301809302011092B9011092A0
:1015A000B80181E090E0909301018093000186E012
:1015B00090E09093B7018093B60191C02091BE0155
:1015C0003091BF0184E090E002C0880F991F2A95F6
:1015D000E2F7092E000CAA0BBB0B8C219D21AE213A
:1015E000BF21892B8A2B8B2B51F12091C001309187
:1015F000C1010091C0011091C101032E000C440BE8
:10160000550BC701B6010E948A0E9B01AC012C2527
:101610003D254E255F25C701B6010E94ED0E04C091
:10162000F594E794D794C7940A95D2F7C62AD72A97
:10163000E82AF92AF594E794D794C7942EC08091AC
:10164000C2019091C3014601570104C0B594A7940B
:10165000979487948A95D2F7D501C4014091BE0131
:101660005091BF012091C0013091C10102C0440FCF
:10167000551F2A95E2F7052E000C660B770B4C21BF
:101680005D216E217F21452B462B472B21F0CC0C71
:10169000DD1CEE1CFF1CC82AD92AD092A601C092DC
:1016A000A50180E190E090930501809304011092E0
:1016B000BB011092BA0186E190E090930301809300
:1016C00002011092B9011092B8018DE090E0909360
:1016D0000101809300011092B7011092B601809130
:1016E000A5019091A6018093B3008091A7019091EC
:1016F000A801A091A901B091AA010196A11DB11D57
:101700008093A7019093A801A093A901B093AA0187
:101710008091A3019091A4010196811524E0920784
:1017200029F09093A4018093A30104C01092A40116
:101730001092A3018091AB01882341F08091A30115
:101740009091A401892B11F40E948B02FF91EF91DB
:10175000BF91AF919F918F917F916F915F914F91C9
:101760003F912F911F910F91FF90EF90DF90CF90BD
:10177000BF90AF909F908F907F906F905F904F90B1
:101780000F900FBE0F901F901895789484B58260CB
:1017900084BD84B5816084BD85B5826085BD85B515
:1017A000816085BD80916E00816080936E00109293
:1017B000810080918100826080938100809181000E
:1017C000816080938100809180008160809380009F
:1017D0008091B10084608093B1008091B0008160FD
:1017E0008093B00080917A00846080937A00809129
:1017F0007A00826080937A0080917A008160809381
:101800007A0080917A00806880937A001092C100FB
:1018100061E08DE00E941C0162E084E00E941C01F6
:1018200062E082E00E941C0161E08BE00E941C01EA
:101830008091B6008F798093B6008091B00083606C
:101840008093B0008091B100877F8093B100809138
:10185000B0008F7B80688093B0008091B0008F7C57
:101860008093B0008091B100887F81608093B10047
:101870001092B300F89480918100877E88608093F5
:101880008100809180008C7F809380008091810016
:10189000887F81608093810080ED93E09093890040
:1018A0008093880080916F00826080936F007894AD
:1018B000E091E601F091E70182E08083E091E201AE
:1018C000F091E3011082E091E401F091E5018FECE9
:1018D00080831092EE01E091EA01F091EB0186E045
:1018E0008083E091E801F091E9018081806180834B
:1018F000E091E801F091E901808188608083E091C6
:10190000E801F091E901808180688083E091E8013D
:10191000F091E90180818F7D8083C1E0D0E188244E
:101920008A9483E0982EA12CB12C84E00E94C400FC
:101930002091BD01892B41F521110CC0C093BD013F
:101940000E946F016093B2017093B3018093B40160
:101950009093B5010E946F010091B2011091B30103
:101960002091B4013091B501DC01CB01801B910BBA
:10197000A20BB30B893E9340A105B105A8F180915C
:10198000B101811131C08BC1222371F18091B1016C
:10199000882361F01092B1018DE191E00E9436033D
:1019A000809107018C27809307011CC0809106015C
:1019B000803121F08F5F8093060102C0C093060141
:1019C00085E391E00E94C2026091060170E080E030
:1019D00090E04AE00E94D4028AE191E00E94C202B3
:1019E0000E948B021092BD0182E00E94C4002091EF
:1019F000BC01892B41F521110CC0C093BC010E9490
:101A00006F016093AD017093AE018093AF0190932D
:101A1000B0010E946F010091AD011091AE012091C3
:101A2000AF013091B001DC01CB01801B910BA20B07
:101A3000B30B893E9340A105B10548F18091AC01FB
:101A4000811125C033C1222311F18091AC0188237B
:101A500061F01092AC0180E491E00E943603809125
:101A6000AB018C278093AB0112C0809106018823C3
:101A700021F081508093060102C0D09306018AE5CF
:101A800091E00E9436030E948B021092BC0180916B
:101A9000BD0181117BC08091BC01811177C0009193
:101AA000040110910501C090BA01D090BB010D2C2A
:101AB000000CEE08FF080E945801A801110F660BE8
:101AC000770B9A01AB012C193D094E095F09DC0126
:101AD0000E94B40EA50194010E948A0EC20ED31E6C
:101AE000E41EF51ED092C301C092C2010091020112
:101AF00010910301C090B801D090B9010D2C000CD9
:101B0000EE08FF0881E00E945801A801110F660B42
:101B1000770B9A01AB012C193D094E095F09DC01D5
:101B20000E94B40EA50194010E948A0EC20ED31E1B
:101B3000E41EF51ED092C101C092C00100910001C7
:101B400010910101C090B601D090B7010D2C000C8E
:101B5000EE08FF0882E00E945801A801110F660BF1
:101B6000770B9A01AB012C193D094E095F09DC0185
:101B70000E94B40EA50194010E948A0EC20ED31ECB
:101B8000E41EF51ED092BF01C092BE010E946F01FB
:101B90000091C9011091CA012091CB013091CC0173
:101BA00008511C4F2F4F3F4F0617170728073907BB
:101BB00008F046C00E946F016093C9017093CA018A
:101BC0008093CB019093CC01809107018823C1F1D0
:101BD0006091060170E080E090E04AE00E94D4024B
:101BE0008AE191E00E94C2028CE391E00E94C2026D
:101BF0008091C2019091C3010E9444038CE691E060
:101C00000E94C2028091C0019091C1010E944403D0
:101C100081E791E00E94C2026091BE017091BF0114
:101C2000072E000C880B990B97FF03C00E94150329
:101C300003C04AE00E94D4028AE191E00E94C202FD
:101C40008091C801882381F061E08DE00E94ED0061
:101C50001092C8010E946F016093C4017093C50186
:101C60008093C6019093C7010E946F010091C40147
:101C70001091C5012091C6013091C701DC01CB0153
:101C8000801B910BA20BB30B0B97A105B10520F0A4
:101C900060E08DE00E94ED000E94810246CEC0937C
:101CA000B10186E791E00E9436039ECEC093AC015D
:101CB0008BE891E00E943603EACEE6EDF1E0138274
:101CC000128288EE93E0A0E0B0E084839583A6833F
:101CD000B7838CE091E09183808385EC90E09587D9
:101CE000848784EC90E09787868780EC90E0918BE6
:101CF000808B81EC90E0938B828B82EC90E0958BD3
:101D0000848B86EC90E0978B868B118E128E138ECF
:101D1000148E0895052E97FB1EF400940E94A10EC8
:101D200057FD07D00E94BC0E07FC03D04EF40C9464
:101D3000A10E50954095309521953F4F4F4F5F4FE5
:101D4000089590958095709561957F4F8F4F9F4F27
:101D500008950E94DE0EA59F900DB49F900DA49F44
:101D6000800D911D11240895B7FF0C94A90E0E94B7
:101D7000A90E821B930B0895A1E21A2EAA1BBB1B6E
:101D8000FD010DC0AA1FBB1FEE1FFF1FA217B30747
:101D9000E407F50720F0A21BB30BE40BF50B661F5D
:101DA000771F881F991F1A9469F760957095809521
:101DB00090959B01AC01BD01CF010895A29FB00198
:101DC000B39FC001A39F700D811D1124911DB29F6F
:101DD000700D811D1124911D0895DB018F939F9338
:101DE0000E94A90EBF91AF91A29F800D911DA39F4C
:101DF000900DB29F900D1124089597FB072E16F4B5
:101E0000009407D077FD09D00E94170F07FC05D07A
:101E10003EF4909581959F4F0895709561957F4F01
:101E20000895EE0FFF1F0590F491E02D0994AA1B71
:101E3000BB1B51E107C0AA1FBB1FA617B70710F0B5
:101E4000A61BB70B881F991F5A95A9F780959095E7
:101E5000BC01CD01089581E090E0F8940C94300F1E
:041E6000F894FFCF24
:101E64006300630063000E010000000012027B01A6
:101E7400A9015F02DA01B801CC010D0A0070756C8A
:101E8400736163696F6E204C415247412052454C47
:101E9400454153450050524F4752414D413A20006D
:101EA40070756C736163696F6E204C4152474120B9
:101EB40052454C4541534520320070756C73616343
:101EC400696F6E20434F52544120320020423A2021
:101ED4000020433A200070756C736163696F6E2053
:101EE4006C61726761204F5645520070756C736166
:101EF40063696F6E206C61726761204F5645522092
:021F04003200A9
:00000001FF
