:100000000C9471000C9499000C9499000C94990034
:100010000C9499000C9499000C9499000C949900FC
:100020000C9499000C9499000C9499000C940A0477
:100030000C9499000C9499000C9499000C949900DC
:100040000C9468030C9499000C94D8030C94B2039C
:100050000C9499000C9499000C9499000C949900BC
:100060000C9499000C9499003F04A5042205B7054F
:10007000660615078207CC074008B108FE08870905
:10008000FD095A0AF60A00000000240027002A0091
:1000900000000000250028002B00000000002300C5
:1000A00026002900040404040404040402020202D9
:1000B000020203030303030301020408102040802B
:1000C00001020408102001020408102000000008AA
:1000D000000201000003040700000000000000000F
:1000E000BA0E11241FBECFEFD8E0DEBFCDBF11E0A6
:1000F000A0E0B1E0ECE2FFE102C005900D92AA3B66
:10010000B107D9F722E0AAEBB1E001C01D92AB38EC
:10011000B207E1F710E0C1E7D0E004C02197FE018B
:100120000E946E0FC037D107C9F70E94D90B0C94FB
:10013000940F0C940000833081F028F4813099F002
:100140008230A1F008958730A9F08830B9F084306A
:10015000D1F4809180008F7D03C0809180008F77E3
:1001600080938000089584B58F7702C084B58F7D19
:1001700084BD08958091B0008F7703C08091B00056
:100180008F7D8093B0000895CF93DF93282F30E0C8
:10019000F901E453FF4F8491F901E854FF4FD491E2
:1001A000F901EC55FF4FC491CC2391F081110E94CD
:1001B0009B00EC2FF0E0EE0FFF1FE656FF4FA591DE
:1001C000B491EC91ED2381E090E021F480E002C055
:1001D00080E090E0DF91CF9108951F93CF93DF935C
:1001E000282F30E0F901E453FF4F8491F901E854DE
:1001F000FF4FD491F901EC55FF4FC491CC23C1F0CE
:10020000162F81110E949B00EC2FF0E0EE0FFF1FD4
:10021000E057FF4FA591B4919FB7F894111104C016
:100220008C91D095D82302C0EC91DE2BDC939FBF3C
:10023000DF91CF911F910895CF93DF9390E0FC0160
:10024000E854FF4F2491FC01EC55FF4F8491882323
:1002500061F190E0880F991FFC01EA57FF4FC591AB
:10026000D491FC01E057FF4FA591B491611109C0F1
:100270009FB7F8948881209582238883EC912E2360
:100280000BC0623061F49FB7F8948881322F3095AB
:1002900083238883EC912E2B2C939FBF06C08FB7AE
:1002A000F894E8812E2B28838FBFDF91CF9108959A
:1002B0008E3008F08E508770806480937C0080912F
:1002C0007A00806480937A0080917A0086FDFCCF6A
:1002D000809178002091790090E0922B08952FB7BB
:1002E000F8946091EA017091EB018091EC0190919A
:1002F000ED012FBF0895CF92DF92EF92FF920F93FF
:100300001F93CF93DF936C017A018B01C0E0D0E0A3
:10031000CE15DF0581F0D8016D918D01D601ED91EB
:10032000FC910190F081E02DC6010995892B11F017
:100330002196EECF7E01C701DF91CF911F910F91E2
:10034000FF90EF90DF90CF900895089580E090E0C7
:100350000895FC01538D448D252F30E0842F90E0CB
:10036000821B930B541710F0CF96089501970895B0
:10037000FC01918D828D981761F0828DDF01A80FAD
:10038000B11D5D968C91928D9F5F9F73928F90E0CF
:1003900008958FEF9FEF0895FC01918D828D98173E
:1003A00031F0828DE80FF11D858D90E008958FEF7B
:1003B0009FEF0895FC01918D228D892F90E0805C44
:1003C0009F4F821B91098F73992708958EEE91E0BC
:1003D0000E94DA0121E0892B09F420E0822F0895A0
:1003E000FC01848DDF01A80FB11DA35ABF4F2C91D2
:1003F000848D90E001968F739927848FA689B789A1
:100400002C93A089B1898C91837080648C93938D97
:10041000848D981306C00288F389E02D80818F7D3A
:1004200080830895EF92FF920F931F93CF93DF93F2
:10043000EC0181E0888F9B8D8C8D981305C0E88935
:10044000F989808185FD26C0F62E0B8D10E00F5FA7
:100450001F4F0F731127E02E8C8DE8120CC00FB6C2
:1004600007FCFACFE889F989808185FFF5CFCE01B5
:100470000E94F001F1CF8B8DFE01E80FF11DE35AD0
:10048000FF4FF0829FB7F8940B8FEA89FB89808138
:1004900080620AC09FB7F894EE89FF896083E8897B
:1004A000F98980818370806480839FBF81E090E0C0
:1004B000DF91CF911F910F91FF90EF900895CF930F
:1004C000DF93EC01888D8823C9F0EA89FB8980815C
:1004D00085FD05C0A889B9898C9186FD0FC00FB62E
:1004E00007FCF5CF808185FFF2CFA889B9898C916F
:1004F00085FFEDCFCE010E94F001E7CFDF91CF91D4
:10050000089580E090E0892B29F00E94E601811196
:100510000C9400000895CF93DF938091C30188234A
:1005200069F08091BA018F5F803119F08093BA0130
:1005300002C01092BA01C091BA0102C0C091070175
:10054000D0E06C2F617087E00E94ED00BE017595D0
:100550006795617088E00E94ED00BE017595679512
:1005600075956795617089E00E94ED0023E0D5954F
:10057000C7952A95E1F76C2F61708AE0DF91CF91E2
:100580000C94ED00009769F0FC0101900020E9F760
:100590003197AF01481B590BBC018EEE91E00C94D2
:1005A0007B0180E090E008958F929F92AF92BF927E
:1005B0000F931F93CF93DF93CDB7DEB7A1970FB6FD
:1005C000F894DEBF0FBECDBF19A2423008F44AE056
:1005D0008E010F5D1F4F842E912CA12CB12CA501F3
:1005E00094010E94190FE62FB901CA0101501109A7
:1005F000EA3014F4E05D01C0E95CD801EC93232BF0
:10060000242B252B61F7C8010E94C202A1960FB6C8
:10061000F894DEBF0FBECDBFDF91CF911F910F9138
:10062000BF90AF909F908F900895CF92DF92EF92FE
:10063000FF92CF93DF936B017C016DE28EEE91E030
:100640000E941202EC0166277727CB016C197D0905
:100650008E099F094AE00E94D4028C0F9D1FDF91F2
:10066000CF91FF90EF90DF90CF900895CF93DF93DD
:100670000E94C202EC018DE191E00E94C2028C0F47
:100680009D1FDF91CF910895CF93DF93BC01990F08
:10069000880B990B97FF03C00E94150303C04AE023
:1006A0000E94D402EC018DE191E00E94C2028C0F05
:1006B0009D1FDF91CF910895BC01990F880B990B75
:1006C00097FD0C9415034AE00C94D4020E948F0FFE
:1006D0001F920F920FB60F9211242F933F938F9377
:1006E0009F93AF93BF938091EA019091EB01A0910A
:1006F000EC01B091ED013091E90123E0230F2D379A
:1007000020F40196A11DB11D05C026E8230F029615
:10071000A11DB11D2093E9018093EA019093EB01A3
:10072000A093EC01B093ED018091E5019091E60179
:10073000A091E701B091E8010196A11DB11D809340
:10074000E5019093E601A093E701B093E801BF9122
:10075000AF919F918F913F912F910F900FBE0F906E
:100760001F9018951F920F920FB60F9211242F937E
:100770003F934F935F936F937F938F939F93AF9329
:10078000BF93EF93FF938EEE91E00E94F001FF91F3
:10079000EF91BF91AF919F918F917F916F915F91F9
:1007A0004F913F912F910F900FBE0F901F90189572
:1007B0001F920F920FB60F9211242F938F939F9336
:1007C000EF93FF93E091FE01F091FF018081E091B2
:1007D0000402F091050282FD12C09081809107020F
:1007E0008F5F8F7320910802821751F0E09107020A
:1007F000F0E0E251FE4F958F8093070201C08081A7
:10080000FF91EF919F918F912F910F900FBE0F90BD
:100810001F9018951F920F920FB60F9211244F92AE
:100820005F926F927F928F929F92AF92BF92CF9280
:10083000DF92EF92FF920F931F932F933F934F936B
:100840005F936F937F938F939F93AF93BF93EF9338
:10085000FF93E09107018E2F90E0FC013197EF307C
:10086000F10508F054C7EC5CFF4FC090BF01D09079
:10087000C001E090C101F090C2010C946E0F809114
:10088000DA019091DB010091D8011091D9012091FA
:10089000D6013091D7014091DA015091DB0160918E
:1008A000D8017091D9012601370104C0759467946D
:1008B000579447948A95D2F7F601E421F521D701A0
:1008C000C60104C0B595A795979587950A95D2F767
:1008D0008C299D298E0F9F1F2F5F3F4F36014701A7
:1008E00004C095948794779467942A95D2F78621CB
:1008F00097219701860104C035952795179507958F
:100900006A95D2F70C9DB0010D9D700D1C9D700D68
:10091000112404C0F594E794D794C7944A95D2F76C
:10092000C622D722C82AD92AD092BE01C092BD01C0
:100930008AE090E090930601809305011092D30124
:100940001092D2018EE090E092C321E0C216D10451
:10095000E206F10464F080E090E0AFEFBFEF809337
:10096000BF019093C001A093C101B093C2018091D7
:10097000BF019091C001A091C101B091C2016091ED
:10098000D6017091D7014091DA015091DB010091BD
:10099000D8011091D901E091D801F091D9012091AD
:1009A000DA013091DB016C017D0104C0F594E7941C
:1009B000D794C7946A95D2F7052E000C660B770B77
:1009C0004C295D296E297F296C017D010A2E04C006
:1009D000F594E794D794C7940A94D2F7C42AD52AF9
:1009E000E62AF72A0C9DB0010D9D700D1C9D700D1F
:1009F0001124319604C0B595A79597958795EA95EA
:100A0000D2F72F5F3F4F82239323860F971F909338
:100A1000BE018093BD018CE090E09093060180932D
:100A200005011092D3011092D20124E130E03093FD
:100A300004012093030124E030E03093D10120939E
:100A4000D001D4C48091D6019091D701B701A601FD
:100A500004C075956795579547958A95D2F7960185
:100A600025723327242735278091DA019091DB0105
:100A70002601370104C075946794579447948A956A
:100A8000D2F7D301C2018C259D258C0D9D1D40916F
:100A9000DA015091DB013601470104C09594879437
:100AA000779467944A95D2F767286828692829F4CB
:100AB00046E050E060E070E004C042E050E060E0FA
:100AC00070E0E091D801F091D9014601570104C0CE
:100AD000B594A79497948794EA95D2F74821592121
:100AE0006A217B21C49EF001C59EF00DD49EF00DBD
:100AF00011248E1B9F0B46015701880C991CAA1CC0
:100B0000BB1C4091D8015091D901052E000C660BF9
:100B1000770B4C215D216E217F21452B462B472BE6
:100B200041F064E0F594E794D794C7946A95D1F7BF
:100B300007C05AE0F594E794D794C7945A95D1F733
:100B40008C209D2088269926282939293093BE019A
:100B50002093BD018EE190E0909306018093050102
:100B600086E090E09093D3018093D201A2C0A0913F
:100B7000D801B091D9010091DA011091DB01E09127
:100B8000D601F091D701A70196010E94110FDC0157
:100B9000CB0104C0B595A795979587950A95D2F78F
:100BA00025E230E02E1B3F0B2C213D21B9016827A7
:100BB0007927D701C6011BE0B595A795979587952D
:100BC0001A95D1F78C259D258C0D9D1D97018601C9
:100BD00046E035952795179507954A95D1F7012B4E
:100BE000022B032B49F48090DA019090DB01092C51
:100BF000000CAA08BB0805C0B2E08B2E912CA12CDA
:100C0000B12C4091D6015091D7012091D80130915B
:100C1000D901240F351F2601370104C0759467944C
:100C2000579447942A95D2F784209520A620B72080
:100C3000C89C9001C99C300DD89C300D1124821B9A
:100C4000930B97018601000F111F221F331F4601CE
:100C5000570146E084229924AA24BB2489288A28A3
:100C60008B2841F0F4E0F594E794D794C794FA9573
:100C7000D1F70BC04091D6015091D70104C0F59433
:100C8000E794D794C7944A95D2F7C022D1228C25F5
:100C90009D25682B792B7093BE016093BD018CE07C
:100CA00090E090930601809305011092D301109279
:100CB000D20180E190E090930401809303011092AF
:100CC000D1011092D0018AE090E019C5A091D6011F
:100CD000B091D701E091D801F091D901A701960117
:100CE0000E94110FDC01CB0152E0B595A7959795B5
:100CF00087955A95D1F72EE130E02E1B3F0B2C2122
:100D00003D21B901682779278091D8019091D901B7
:100D10002601370104C075946794579447948A95C7
:100D2000D2F7D301C2018C259D258C0D9D1D970105
:100D30008601E6E03595279517950795EA95D1F751
:100D4000012B022B032B29F08090DA019090DB011C
:100D500004C08090D6019090D7012091DA013091A3
:100D6000DB012601370104C07594679457944794BA
:100D70002A95D2F7092C000CAA08BB0884209520DC
:100D8000A620B720C89C9001C99C300DD89C300D7E
:100D90001124821B930B97018601000F111F221F44
:100DA000331F8090D8019090D901092C000CAA081B
:100DB000BB088C209D20AE20BF2089288A288B2844
:100DC00041F024E0F594E794D794C7942A95D1F79D
:100DD0000BC04091D6015091D70104C0F594E7941F
:100DE000D794C7944A95D2F70C211D2108271927BB
:100DF000602B712B7093BE016093BD0188E190E080
:100E000090930601809305011092D3011092D201B4
:100E100086E190E090930401809303011092D10148
:100E20001092D00180E190E06AC42091DA01309103
:100E3000DB01A091DA01B091DB010091DA011091A0
:100E4000DB01E091D601F091D7018091D80190911A
:100E5000D901B701A60104C07595679557954795C7
:100E60002A95D2F7960124233523B701A60104C0A1
:100E700075956795579547950A95D2F74C215D2151
:100E8000420F531F9701860104C03595279517958A
:100E90000795AA95D2F7401B510B9701860104C014
:100EA0003595279517950795EA95D2F7092E000CE9
:100EB000AA0BBB0B80239123A223B3238C9D90010B
:100EC0008D9D300D9C9D300D1124420F531F50936A
:100ED000BE014093BD012AE030E03093060120932B
:100EE000050183E090E09093D3018093D2014CE11F
:100EF00050E050930401409303011092D1011092ED
:100F0000D001D3C28091D8019091D9013601470117
:100F100004C095948794779467948A95D2F7D40106
:100F2000C3018C219D21AE21BF21892B8A2B8B2BC4
:100F300029F08091DA019091DB010CC08091D601FB
:100F40009091D701F094E094D094C094C11CD11C2E
:100F5000E11CF11C04C0F594E794D794C7948A95DA
:100F6000D2F7D092BE01C092BD018AE090E090938A
:100F70000601809305011092D3011092D20126E15F
:100F800030E030930401209303019093D1018093CA
:100F9000D00188E090E0B3C321E0C216D104E2069C
:100FA000F10464F080E090E0AFEFBFEF8093BF0109
:100FB0009093C001A093C101B093C2018091BF0181
:100FC0009091C001A091C101B091C2016091DA017C
:100FD0007091DB014091D6015091D701E091D80189
:100FE000F091D9012091D8013091D9016C017D0196
:100FF00004C0F594E794D794C7946A95D2F7052E68
:10100000000C660B770B4C295D296E297F296C013A
:101010007D010A2E04C0F594E794D794C7940A94EE
:10102000D2F7C42AD52AE62AF72AEC9DB001ED9D15
:10103000700DFC9D700D11242F5F3F4F04C0B595BE
:10104000A795979587952A95D2F7860F971F909326
:10105000BE018093BD018CE090E0909306018093E7
:1010600005011092D3011092D20184E190E0909397
:101070000401809303011092D1011092D0013FC36B
:101080004091DA015091DB016091DA017091DB014E
:101090002091D6013091D7018091D8019091D9014A
:1010A000A091D601B091D70126233723260137011D
:1010B00004C075946794579447942A95D2F7930186
:1010C00082013601470104C0959487947794679410
:1010D0004A95D2F706291729282939290C9DF001AC
:1010E0000D9DF00D1C9DF00D11247727F7FC7A95CE
:1010F0006F2D5E2D4D2D48235923CF018423952339
:10110000B701A60104C07595679557954795AA95AF
:10111000D2F74C215D2116E0F594E794D794C7945B
:101120001A95D1F7C42AD52AC826D926D092BE014D
:10113000C092BD0180E190E090930601809305018B
:101140001092D3011092D20186E590E090930401B1
:10115000809303011092D1011092D0018AE190E0B6
:10116000CEC24091D6015091D7018091DA01909181
:10117000DB012091D8013091D9014601570104C00B
:10118000B594A794979487944A95D2F747E0489DE1
:10119000B001499D700D11244601570104C0B5945A
:1011A000A794979487948A95D2F7D501C401E3E078
:1011B000880F991FEA95E1F7862B972B4601570177
:1011C00004C0B594A794979487942A95D2F7489D24
:1011D0009001499D300D1124822B932BF7E0F5945B
:1011E000E794D794C794FA95D1F7C822D922D09220
:1011F000BE01C092BD0188E090E06DC28091DA012D
:101200009091DB014091D8015091D9012091D601F4
:101210003091D701A090D801B090D9010091D601AA
:101220001091D70160E870E0641B750BE9E0F0E015
:10123000AF01421B530B2601370104C0759467941C
:10124000579447944A95D2F702C0660F771F4A9485
:10125000E2F70E945A0FA701960104C055954795E1
:10126000379527958A95D2F7D5010E94110F9B01DA
:10127000AC01C701B6010E944A0F4B015C01D801C5
:10128000A70196010E94110FDC01CB0154E0880FE9
:10129000991FAA1FBB1F5A95D1F78C9D90018D9D58
:1012A000300D9C9D300D1124D501C40104C0B595AD
:1012B000A795979587952A95D2F762E1B595A79559
:1012C000979587956A95D1F79093BE018093BD015C
:1012D00080E190E0909306018093050184E090E026
:1012E0009093D3018093D20186E190E09093040122
:1012F0008093030181E090E09093D1018093D0012D
:10130000F0930201E093010182E090E06AC1409114
:10131000DA015091DB018090D8019090D901A09022
:10132000D601B090D7012091D8013091D901809198
:10133000D6019091D701A091D801B091D9015CE07C
:101340005C9DF0015D9DF00D11242601370104C064
:1013500075946794579447944A95D2F78F01042166
:1013600015218C9CF0018D9CF00D9C9CF00D11249E
:10137000B701A60104C07595679557954795AA943E
:10138000D2F74E235F23F801E42BF52BBD01660F46
:10139000771F660F771F0E945A0F2C9DC0012D9D4D
:1013A000900D3C9D900D1124682379236E2B7F2B8B
:1013B000625071097093BE016093BD0182E190E0BB
:1013C00090930601809305011092D3011092D201EF
:1013D00088E090E0909304018093030181E090E025
:1013E0009093D1018093D0018EE090E09093020120
:1013F0008093010185E090E0F4C08091DA01909142
:10140000DB01A091D801B091D901E091D601F09112
:10141000D701B701A60104C0759567955795479503
:101420008A95D2F74C9D80014D9D100D5C9D100D4D
:101430001124A70196010E94110FDC01CB0127E0C6
:10144000B595A795979587952A95D1F7B801682303
:10145000792333E0CC0CDD1CEE1CFF1C3A95D1F750
:1014600004C0F594E794D794C794EA95D2F7C622BE
:10147000D722D092BE01C092BD0182E190E090934C
:101480000601809305012AE030E03093D3012093D8
:10149000D2018EE090E0909304018093030181E0FB
:1014A00090E09093D1018093D0013093020120937A
:1014B000010197C08091D6019091D7013601470173
:1014C00004C095948794779467948A95D2F796018F
:1014D0002170332726253725D701C601E5E1B595CB
:1014E000A79597958795EA95D1F78C259D258C0D25
:1014F0009D1DB701A601F4E0759567955795479531
:10150000FA95D1F7411551056105710529F08090D3
:10151000D8019090D90104C08090DA019090DB014D
:10152000A091DA01B091DB01B595A795ECE0F0E070
:10153000EA1BFB0B2601370104C07594679457948E
:101540004794EA95D2F7092C000CAA08BB0884201E
:101550009520A620B720C89CF001C99CF00DD89C0E
:10156000F00D11248E1B9F0B46015701880C991C0E
:10157000AA1CBB1CE091DA01F091DB01EC70FF27A3
:10158000EF2B11F06A0107C04AE0F594E794D79475
:10159000C7944A95D1F78C209D2088259925282B22
:1015A000392B3093BE012093BD0188E090E09093E9
:1015B0000601809305011092D3011092D20180E1BF
:1015C00090E090930401809303011092D101109256
:1015D000D00181E090E0909302018093010186E0C8
:1015E00090E09093CF018093CE0191C02091D601DD
:1015F0003091D70184E090E002C0880F991F2A95AE
:10160000E2F7092E000CAA0BBB0B8C219D21AE2109
:10161000BF21892B8A2B8B2B51F12091D80130913E
:10162000D9010091D8011091D901032E000C440B6F
:10163000550BC701B6010E94E70E9B01AC012C259A
:101640003D254E255F25C701B6010E944A0F04C003
:10165000F594E794D794C7940A95D2F7C62AD72A67
:10166000E82AF92AF594E794D794C7942EC080917C
:10167000DA019091DB014601570104C0B594A794AB
:10168000979487948A95D2F7D501C4014091D601E9
:101690005091D7012091D8013091D90102C0440F57
:1016A000551F2A95E2F7052E000C660B770B4C218F
:1016B0005D216E217F21452B462B472B21F0CC0C41
:1016C000DD1CEE1CFF1CC82AD92AD092BE01C09294
:1016D000BD0180E190E09093060180930501109296
:1016E000D3011092D20186E190E09093040180939F
:1016F00003011092D1011092D0018DE090E09093FF
:101700000201809301011092CF011092CE018091CD
:10171000BD019091BE018093B300209100018091A2
:10172000BF019091C001A091C101B091C201820F8F
:10173000911DA11DB11D8093BF019093C001A09385
:10174000C101B093C2018091BB019091BC0101968F
:10175000811524E0920729F09093BC018093BB018E
:1017600009C01092BC011092BB018091C30181118C
:101770000E948B02FF91EF91BF91AF919F918F914A
:101780007F916F915F914F913F912F911F910F9199
:10179000FF90EF90DF90CF90BF90AF909F908F9091
:1017A0007F906F905F904F900F900FBE0F901F90A3
:1017B0001895789484B5826084BD84B5816084BDB9
:1017C00085B5826085BD85B5816085BD80916E00DF
:1017D000816080936E001092810080918100826010
:1017E000809381008091810081608093810080914D
:1017F00080008160809380008091B100846080933C
:10180000B1008091B00081608093B00080917A0037
:10181000846080937A0080917A00826080937A005D
:1018200080917A00816080937A0080917A0080684C
:1018300080937A001092C10061E08DE00E941C014B
:1018400062E084E00E941C0162E082E00E941C01D0
:1018500061E08BE00E941C018091B6008F7980933B
:10186000B6008091B00083608093B0008091B10099
:10187000877F8093B1008091B0008F7B80688093D8
:10188000B0008091B0008F7C8093B0008091B10057
:10189000887F81608093B1001092B300F8948091AA
:1018A0008100877E886080938100809180008C7F9A
:1018B0008093800080918100887F81608093810087
:1018C0002091080130910901032E000C440B550BA7
:1018D00060E074E284EF90E00E94E70E30938900AC
:1018E0002093880080916F00826080936F007894CD
:1018F000E091FE01F091FF0182E08083E091FA0126
:10190000F091FB011082E091FC01F091FD018FEC60
:10191000808310920602E0910202F091030286E0B9
:101920008083E0910002F0910102808180618083D8
:10193000E0910002F0910102808188608083E09153
:101940000002F0910102808180688083E0910002B2
:10195000F091010280818F7D8083C1E0D0E1CC24B1
:10196000CA9483E0D82EE12CF12C812C94E2992E9C
:1019700094EFA92EB12C84E00E94C4002091D501DF
:10198000892B41F521110CC0C093D5010E946F0134
:101990006093CA017093CB018093CC019093CD01E9
:1019A0000E946F010091CA011091CB012091CC01DE
:1019B0003091CD01DC01CB01801B910BA20BB30B4D
:1019C000893E9340A105B105A8F18091C90181111B
:1019D00031C0C2C1222371F18091C901882361F015
:1019E0001092C90180E291E00E94360380910A01C1
:1019F0008C2780930A011CC080910701803121F05F
:101A00008F5F8093070102C0C093070183E391E0D9
:101A10000E94C2026091070170E080E090E04AE01D
:101A20000E94D4028DE191E00E94C2020E948B02CA
:101A30001092D50182E00E94C4002091D401892B2C
:101A400041F521110CC0C093D4010E946F01609335
:101A5000C5017093C6018093C7019093C8010E948D
:101A60006F010091C5011091C6012091C70130910D
:101A7000C801DC01CB01801B910BA20BB30B893E8B
:101A80009340A105B10548F18091C401811125C0A1
:101A90006AC1222311F18091C401882361F0109260
:101AA000C4018DE391E00E9436038091C3018C272D
:101AB0008093C30112C080910701882321F08150D7
:101AC0008093070102C0D093070189E591E00E944D
:101AD00036030E948B021092D4018091D5018111AE
:101AE0007CC08091D4018111A3C0009105011091A7
:101AF00006014090D2015090D301052C000C6608DD
:101B000077080E945801A801110F660B770B9A0104
:101B1000AB012419350946095709DC010E94110F50
:101B2000A70196010E94E70E420E531E641E751E09
:101B30005092DB014092DA010091030110910401FF
:101B40004090D0015090D101052C000C6608770818
:101B500081E00E945801A801110F660B770B9A01D2
:101B6000AB012419350946095709DC010E94110F00
:101B7000A70196010E94E70E420E531E641E751EB9
:101B80005092D9014092D8010091010110910201B7
:101B90004090CE015090CF01052C000C66087708CC
:101BA00082E00E945801A801110F660B770B9A0181
:101BB000AB012419350946095709DC010E94110FB0
:101BC000A70196010E94E70E420E531E641E751E69
:101BD0005092D7014092D6012BC080E00E9458015C
:101BE0002EE030E0DC010E94740FA70196010E94F4
:101BF000E70EDA01C9010196A11DB11D8093000114
:101C000081E00E94580120E03FE3DC010E94740F54
:101C1000A70196010E94E70EDA01C9019F5FAF4F4D
:101C2000BF4F909309018093080182E00E94580100
:101C30000E946F010091E1011091E2012091E30106
:101C40003091E40108511C4F2F4F3F4F06171707E3
:101C50002807390708F041C00E946F016093E10135
:101C60007093E2018093E3019093E40180910A0173
:101C7000882399F16091070170E080E090E04AE0EC
:101C80000E94D4028DE191E00E94C2028EE691E0B2
:101C90000E94C2028091DA019091DB010E945C03F4
:101CA00082E791E00E94C2028091D8019091D9010F
:101CB0000E945C0387E791E00E94C2028091D601F6
:101CC0009091D7010E9444038CE791E00E94360373
:101CD0008091D50190E00E9444038091E001882327
:101CE00081F061E08DE00E94ED001092E0010E9421
:101CF0006F016093DC017093DD018093DE019093AE
:101D0000DF010E946F010091DC011091DD01209143
:101D1000DE013091DF01DC01CB01801B910BA20BB6
:101D2000B30B0B97A105B10520F060E08DE00E9498
:101D3000ED002091080130910901032E000C440BA5
:101D4000550BC501B4010E94E70E30938900209322
:101D500088000E9481020FCEC093C90181E991E001
:101D60000E94360367CEC093C40181EA91E00E94CD
:101D70003603B3CEEEEEF1E01382128288EE93E0EA
:101D8000A0E0B0E084839583A683B7838FE091E0E1
:101D90009183808385EC90E09587848784EC90E044
:101DA0009787868780EC90E0918B808B81EC90E028
:101DB000938B828B82EC90E0958B848B86EC90E009
:101DC000978B868B118E128E138E148E0895052E8E
:101DD00097FB1EF400940E94FE0E57FD07D00E9450
:101DE000190F07FC03D04EF40C94FE0E509540954D
:101DF000309521953F4F4F4F5F4F089590958095B7
:101E0000709561957F4F8F4F9F4F08950E943B0FB4
:101E1000A59F900DB49F900DA49F800D911D11243E
:101E20000895B7FF0C94060F0E94060F821B930BB8
:101E30000895A1E21A2EAA1BBB1BFD010DC0AA1F0B
:101E4000BB1FEE1FFF1FA217B307E407F50720F023
:101E5000A21BB30BE40BF50B661F771F881F991F9E
:101E60001A9469F760957095809590959B01AC01E7
:101E7000BD01CF010895A29FB001B39FC001A39FF0
:101E8000700D811D1124911DB29F700D811D1124B3
:101E9000911D0895DB018F939F930E94060FBF91C0
:101EA000AF91A29F800D911DA39F900DB29F900DA9
:101EB0001124089597FB072E16F4009407D077FDA0
:101EC00009D00E947B0F07FC05D03EF490958195C8
:101ED0009F4F0895709561957F4F0895EE0FFF1FF6
:101EE0000590F491E02D09940E943B0FB7FF0895EF
:101EF000821B930B0895AA1BBB1B51E107C0AA1FAD
:101F0000BB1FA617B70710F0A61BB70B881F991F9A
:101F10005A95A9F780959095BC01CD01089581E06F
:0C1F200090E0F8940C94940FF894FFCF1C
:101F2C00016300630063000E00400100000000121A
:101F3C00027B01A9015F02DA01B801CC010D0A0094
:101F4C006C6F6E672070726573732052454C4541FF
:101F5C0053450050524F4752414D3A20006C6F6E22
:101F6C00672070726573732072656C656173652090
:101F7C00627574746F6E20320073686F72742070A7
:101F8C007265737320627574746F6E203200413AFF
:101F9C00200020423A200020433A2000495320429E
:101FAC005554544F4E2031206163746976653A2044
:101FBC00006C6F6E67207072657373204F564552BC
:101FCC00006C6F6E67207072657373204F564552AC
:0A1FDC0020627574746F6E203200ED
:00000001FF
