:100000000C9472000C949A000C949A000C949A0030
:100010000C949A000C949A000C949A000C949A00F8
:100020000C949A000C949A000C949A000C94BC03C3
:100030000C949A000C949A000C949A000C949A00D8
:100040000C941A030C949A000C948A030C94640385
:100050000C949A000C949A000C949A000C949A00B8
:100060000C949A000C949A00F3034D04C1045E05AD
:10007000F0058806E3062B079707F8074C089E084B
:1000800002095809D609410A00000000240027008F
:100090002A0000000000250028002B0000000000BE
:1000A00023002600290004040404040404040202BA
:1000B00002020202030303030303010204081020E7
:1000C00040800102040810200102040810200000F2
:1000D0000008000201000003040700000000000007
:1000E0000000710B11241FBECFEFD8E0DEBFCDBFE3
:1000F00012E0A0E0B1E0E8E9FFE102C005900D9256
:10010000A631B107D9F723E0A6E1B2E001C01D9204
:10011000A230B207E1F710E0C2E7D0E004C02197B7
:10012000FE010E94A40FC137D107C9F70E94A60B98
:100130000C94CA0F0C940000FC01538D448D252FA4
:1001400030E0842F90E0821B930B541710F0CF9671
:10015000089501970895FC01918D828D981761F0A3
:10016000828DDF01A80FB11D5D968C91928D9F5FEE
:100170009F73928F90E008958FEF9FEF0895FC0199
:10018000918D828D981731F0828DE80FF11D858D4C
:1001900090E008958FEF9FEF0895FC01918D228DDF
:1001A000892F90E0805C9F4F821B91098F73992764
:1001B0000895FC01848DDF01A80FB11DA35ABF4F24
:1001C0002C91848D90E001968F739927848FA68956
:1001D000B7892C93A089B1898C91837080648C93AA
:1001E000938D848D981306C00288F389E02D808159
:1001F0008F7D80830895EF92FF920F931F93CF938B
:10020000DF93EC0181E0888F9B8D8C8D981305C066
:10021000E889F989808185FD26C0F62E0B8D10E0D6
:100220000F5F1F4F0F731127E02E8C8DE8120CC04B
:100230000FB607FCFACFE889F989808185FFF5CFF1
:10024000CE010E94D900F1CF8B8DFE01E80FF11D88
:10025000E35AFF4FF0829FB7F8940B8FEA89FB892E
:10026000808180620AC09FB7F894EE89FF8960831D
:10027000E889F98980818370806480839FBF81E0F1
:1002800090E0DF91CF911F910F91FF90EF90089533
:10029000CF93DF93EC01888D8823C9F0EA89FB892D
:1002A000808185FD05C0A889B9898C9186FD0FC024
:1002B0000FB607FCF5CF808185FFF2CFA889B989F9
:1002C0008C9185FFEDCFCE010E94D900E7CFDF9161
:1002D000CF91089583E692E00E94CD0021E0892B22
:1002E00009F420E0822F089580E090E0892B29F026
:1002F0000E946A0181110C9400000895833081F0FE
:1003000028F4813099F08230A1F008958730A9F067
:100310008830B9F08430D1F4809180008F7D03C0A3
:10032000809180008F7780938000089584B58F77C7
:1003300002C084B58F7D84BD08958091B0008F7711
:1003400003C08091B0008F7D8093B0000895CF935B
:10035000DF93282F30E0F901E253FF4F8491F90138
:10036000E654FF4FD491F901EA55FF4FC491CC23D5
:1003700091F081110E947E01EC2FF0E0EE0FFF1F43
:10038000E456FF4FA591B491EC91ED2381E090E00C
:1003900021F480E002C080E090E0DF91CF910895E9
:1003A0001F93CF93DF93282F30E0F901E253FF4FE3
:1003B0008491F901E654FF4FD491F901EA55FF4FBA
:1003C000C491CC23C1F0162F81110E947E01EC2F25
:1003D000F0E0EE0FFF1FEE56FF4FA591B4919FB7CF
:1003E000F894111104C08C91D095D82302C0EC91DF
:1003F000DE2BDC939FBFDF91CF911F910895CF93A8
:10040000DF9390E0FC01E654FF4F2491FC01EA5594
:10041000FF4F8491882361F190E0880F991FFC01C0
:10042000E857FF4FC591D491FC01EE56FF4FA591BF
:10043000B491611109C09FB7F894888120958223F7
:100440008883EC912E230BC0623061F49FB7F8943F
:100450008881322F309583238883EC912E2B2C9327
:100460009FBF06C08FB7F894E8812E2B28838FBFDB
:10047000DF91CF9108958E3008F08E5087708064A0
:1004800080937C0080917A00806480937A008091D0
:100490007A0086FDFCCF809178002091790090E071
:1004A000922B0895CF92DF92EF92FF920F931F93BA
:1004B000CF93DF936C017A018B01C0E0D0E0CE15C1
:1004C000DF0581F0D8016D918D01D601ED91FC9190
:1004D0000190F081E02DC6010995892B11F021963C
:1004E000EECF7E01C701DF91CF911F910F91FF9059
:1004F000EF90DF90CF900895089580E090E0089508
:10050000CF93DF9380914002882369F08091160297
:100510008F5F803119F08093160202C0109216028C
:10052000C091160202C0C0910001D0E06C2F617032
:1005300087E00E94D001BE0175956795617088E0E3
:100540000E94D001BE01759567957595679561709C
:100550008CE00E94D00123E0D595C7952A95E1F75C
:100560006C2F61708AE0DF91CF910C94D0010097DD
:1005700069F0FC0101900020E9F73197AF01481BB9
:10058000590BBC0183E692E00C94520280E090E0AB
:1005900008958F929F92AF92BF920F931F93CF9324
:1005A000DF93CDB7DEB7A1970FB6F894DEBF0FBECD
:1005B000CDBF19A2423008F44AE08E010F5D1F4FF3
:1005C000842E912CA12CB12CA50194010E944F0FD7
:1005D000E62FB901CA0101501109EA3014F4E05DB7
:1005E00001C0E95CD801EC93232B242B252B61F768
:1005F000C8010E94B702A1960FB6F894DEBF0FBEE5
:10060000CDBFDF91CF911F910F91BF90AF909F9081
:100610008F900895CF93DF930E94B702EC0183E29D
:1006200091E00E94B7028C0F9D1FDF91CF9108953A
:100630000E94C50F1F920F920FB60F9211242F9395
:100640003F938F939F93AF93BF9380915F0290915D
:100650006002A0916102B091620230915E0223E0DB
:10066000230F2D3720F40196A11DB11D05C026E8EA
:10067000230F0296A11DB11D20935E0280935F029D
:1006800090936002A0936102B093620280915A023B
:1006900090915B02A0915C02B0915D020196A11D58
:1006A000B11D80935A0290935B02A0935C02B093B9
:1006B0005D02BF91AF919F918F913F912F910F90CC
:1006C0000FBE0F901F9018951F920F920FB60F92AA
:1006D00011242F933F934F935F936F937F938F9347
:1006E0009F93AF93BF93EF93FF9383E692E00E94B3
:1006F000D900FF91EF91BF91AF919F918F917F9121
:100700006F915F914F913F912F910F900FBE0F907E
:100710001F9018951F920F920FB60F9211242F93CE
:100720008F939F93EF93FF93E0917302F091740284
:100730008081E0917902F0917A0282FD12C090816D
:1007400080917C028F5F8F7320917D02821751F020
:10075000E0917C02F0E0ED59FD4F958F80937C0293
:1007600001C08081FF91EF919F918F912F910F9008
:100770000FBE0F901F9018951F920F920FB60F92F9
:1007800011244F925F926F927F928F929F92AF92BD
:10079000BF92CF92DF92EF92FF920F931F932F930E
:1007A0003F934F935F936F937F938F939F93AF93F9
:1007B000BF93CF93DF93EF93FF93E09100018E2FD0
:1007C00090E0FC013197E031F10508F0E4C6EC5C03
:1007D000FF4FC0901C02D0901D02E0901E02F090CE
:1007E0001F020C94A40F80915402909155026091C5
:1007F00050027091510220914C0230914D02E091D3
:100800005402F0915502C0915002D091510226013C
:10081000370104C075946794579447948A95D2F72A
:100820004C2D4421D701C60104C0B595A7959795D5
:1008300087956A95D2F78C29840F2F5F3F4FB701B8
:10084000A60104C075956795579547952A95D2F7E7
:100850004823D701C60104C0B595A79597958795FC
:10086000CA95D2F78C9D802D112404C0F594E7948D
:10087000D794C794EA95D2F7C822C42AC0921B0223
:100880008AE090E090930A01809309011092570248
:10089000109256028EE090E041C301E0C016D104F0
:1008A000E006F10464F080E090E0AFEFBFEF8093EA
:1008B0001C0290931D02A0931E02B0931F02809110
:1008C0001C0290911D02A0911E02B0911F02609126
:1008D0004C0270914D024091540250915502C091CA
:1008E0005002D09151022091500230915102E0917A
:1008F0005402F09155026C017D0104C0F594E79417
:10090000D794C7946A95D2F7052E000C660B770B27
:100910004C295D296E297F296C017D010A2E04C0B6
:10092000F594E794D794C7940A94D2F74C295D299B
:100930006E297F292F5F3F4F04C0B595A7959795E6
:1009400087952A95D2F7EF5F8E234C9F800D112457
:1009500080931B028CE090E090930A018093090140
:10096000109257021092560224E130E030930801B1
:100970002093070124E030E0309353022093520289
:100980003AC480914C0290914D02A701960104C097
:1009900055954795379527958A95D2F7DA01C9017C
:1009A0002C2D257228278091540290915502B70171
:1009B000A60104C075956795579547958A95D2F716
:1009C000DB01CA018C258C0D4091540250915502D7
:1009D0002601370104C075946794579447944A954B
:1009E000D2F745284628472829F446E050E060E041
:1009F00070E004C042E050E060E070E0E09150023E
:100A0000F09151024601570104C0B594A794979400
:100A10008794EA95D2F7482159216A217B21C49E07
:100A20008019112446015701880C991CAA1CBB1C73
:100A30004091500250915102052E000C660B770B2D
:100A40004C215D216E217F21452B462B472B41F008
:100A5000A4E0F594E794D794C794AA95D1F707C07A
:100A6000FAE0F594E794D794C794FA95D1F78C20DF
:100A7000C82CC826C22AC0921B028EE190E0909337
:100A80000A018093090186E090E0909357028093D9
:100A9000560280E190E09093080180930701109244
:100AA0005302109252028AE090E0909306018093E4
:100AB000050110924F0210924E026DC5A091500296
:100AC000B0915102C0915402D0915502E0914C0274
:100AD000F0914D02A70196010E94470FAB01BC01A6
:100AE00004C07595679557954795CA95D2F785E2E5
:100AF0008E1B8C21682F6427D701C6017BE0B5953A
:100B0000A795979587957A95D1F78C258C0D9701A8
:100B10008601E6E03595279517950795EA95D1F773
:100B2000012B022B032B49F4009154021091550222
:100B3000012E000C220B330B04C002E010E020E079
:100B400030E0E0914C02F0914D0240915002509102
:100B500051024E0F5F1F4601570104C0B594A79480
:100B6000979487944A95D2F7082119212A213B218D
:100B7000C09E8019112497018601000F111F221FAA
:100B8000331F4601570146E084229924AA24BB243E
:100B900089288A288B2841F044E0F594E794D7947B
:100BA000C7944A95D1F70BC040914C0250914D0229
:100BB00004C0F594E794D794C7944A95D2F70C21D2
:100BC000C02EC826C62AC0921B028CE090E09093EB
:100BD0000A0180930901109257021092560259CFD0
:100BE000A0914C02B0914D02E0915002F09151025F
:100BF000A70196010E94470FAB01BC0192E07595D9
:100C00006795579547959A95D1F78EE18E1B8C2164
:100C1000282F2427809150029091510226013701FC
:100C200004C075946794579447948A95D2F7D3017A
:100C3000C2018C258C0DB701A60136E0759567952C
:100C4000579547953A95D1F7452B462B472B29F0D9
:100C5000409154025091550204C040914C02509171
:100C60004D0260915402709155024601570104C033
:100C7000B594A794979487946A95D2F74821382F12
:100C80004C9D30191124B701A601440F551F661F52
:100C9000771F8091500290915102092E000CAA0BEF
:100CA000BB0B8C219D21AE21BF21892B8A2B8B2B45
:100CB00041F004E0F594E794D794C7940A95D1F7EE
:100CC0000BC080914C0290914D0204C0F594E794C2
:100CD000D794C7948A95D2F74C214327242B20938D
:100CE0001B0288E190E090930A0180930901109221
:100CF00057021092560286E190E09093080180938B
:100D00000701109253021092520280E190E0CDCE82
:100D10008091540290915502E0915402F091550255
:100D2000C0915402D091550260914C0270914D02D5
:100D300040915002509151023601470104C09594F0
:100D40008794779467948A95D2F72C2D2621D70122
:100D5000C60104C0B595A79597958795CA95D2F712
:100D60008C21820F9701860104C035952795179530
:100D70000795EA95D2F7801B9701860104C0359547
:100D80002795179507956A95D2F7902F94239C9DE8
:100D9000800D112480931B022AE030E030930A0179
:100DA0002093090183E090E09093570280935602CC
:100DB0004CE150E050930801409307011092530218
:100DC0001092520270C280915002909151024601DD
:100DD000570104C0B594A794979487948A95D2F745
:100DE000D501C4018C219D21AE21BF21892B8A2BE5
:100DF0008B2B29F080915402909155020CC0809168
:100E00004C0290914D02F094E094D094C094C11C97
:100E1000D11CE11CF11C04C0F594E794D794C7944D
:100E20008A95D2F7C0921B028AE090E090930A0163
:100E300080930901109257021092560226E130E089
:100E4000309308012093070190935302809352023C
:100E500088E090E02ACE01E0C016D104E006F1045B
:100E600064F080E090E0AFEFBFEF80931C029093BE
:100E70001D02A0931E02B0931F0280911C0290914C
:100E80001D02A0911E02B0911F0260915402709148
:100E9000550240914C0250914D02E0915002F09168
:100EA000510220915002309151026C017D0104C029
:100EB000F594E794D794C7946A95D2F7052E000C61
:100EC000660B770B4C295D296E297F296C017D010A
:100ED0000A2E04C0F594E794D794C7940A94D2F7E5
:100EE0004C295D296E297F292F5F3F4F04C0B5959E
:100EF000A795979587952A95D2F74E9F800D112437
:100F000080931B028CE090E090930A01809309018A
:100F1000109257021092560284E190E090930801DB
:100F2000809307011092530210925202BECD80911D
:100F300054029091550240915402509155022091D3
:100F40004C0230914D02E0915002F0915102A0917B
:100F50004C02B0914D0224233523B701A60104C0F1
:100F600075956795579547952A95D2F78A019B0104
:100F7000B701A60104C075956795579547958A9561
:100F8000D2F7402B512B622B732B4C9D402D1124FB
:100F90009D2D9E23842F8923B701A60104C075953A
:100FA000679557954795AA95D2F74C2116E0F59489
:100FB000E794D794C7941A95D1F7C42AC826C0924B
:100FC0001B0280E190E090930A0180930901109246
:100FD00057021092560286E590E0909308018093A4
:100FE000070110925302109252028AE190E05DCD07
:100FF00080914C0290914D02A0915402B091550203
:10100000E0915002F0915102B701A60104C075951C
:101010006795579547958A95D2F727E0429F802D8F
:101020001124B701A60104C075956795579547959A
:10103000AA95D2F7440F440F440F482BD701C6019D
:1010400004C0B595A79597958795EA95D2F7829FA5
:10105000802D1124842BD7E0F594E794D794C7947E
:10106000DA95D1F7C822C0921B0288E090E09093F5
:101070000A0180930901109257021092560286E1EC
:1010800090E0909308018093070110925302109210
:1010900052028DE090E009CD6090500270905102B4
:1010A00000914C0210914D0280905002909051029C
:1010B000A0905402B0905502C701B60126E030E07E
:1010C00040E050E00E941D0FDA01C90104C0B5954F
:1010D000A795979587956A94D2F78C219D21AE218B
:1010E000BF210250104C089D002D1124C4E0F5943E
:1010F000E794D794C794CA95D1F7CA9CC02C112401
:10110000089FC00C1124C0921B0288E090E09093CD
:101110000A018093090110925702109256028CE046
:1011200090E0909308018093070184E090E0909311
:1011300053028093520286E090E0B7CCC0915402F3
:10114000D0915502A0915002B091510260914C0291
:1011500070914D02209150023091510280914C02C9
:1011600090914D02E0915002F09151024CE04C9D63
:10117000402D11244601570104C0B594A7949794BB
:101180008794CA95D2F78422CA9EA02D11242601E5
:10119000370104C075946794579447946A95D2F7C1
:1011A000B301A2014A234829BF01660F771F660FCA
:1011B000771F0E94900FC29EC02C11246C21642BBB
:1011C000625060931B0282E190E090930A01809349
:1011D0000901109257021092560288E090E0909315
:1011E00008018093070181E090E09093530280937F
:1011F00052028EE090E0909306018093050185E015
:1012000090E0C5C180915402909155022091500206
:1012100030915102C0914C02D0914D0236014701EC
:1012200004C095948794779467948A95D2F76C9CC0
:10123000E02D1124D901A70196010E94470FDC017E
:10124000CB01F7E0B595A79597958795FA95D1F7D6
:101250006E2F6823A3E0CC0CDD1CEE1CFF1CAA95AE
:10126000D1F704C0F594E794D794C794CA95D2F700
:10127000C622C0921B0282E190E090930A01809303
:1012800009012AE030E030935702209356028EE0A5
:1012900090E0909308018093070181E090E09093A3
:1012A00053028093520230930601209305016FC1CF
:1012B00080914C0290914D024601570104C0B594B3
:1012C000A794979487948A95D2F72C2D217028257E
:1012D000D701C60165E1B595A795979587956A955C
:1012E000D1F78C258C0DB701A601E4E075956795C3
:1012F00057954795EA95D1F7411551056105710557
:1013000029F0C0915002D091510204C0C091540202
:10131000D0915502A0915402B0915502B595A79570
:10132000ECE0F0E0EA1BFB0B4601570104C0B5946A
:10133000A79497948794EA95D2F79C2F98219C9D27
:101340008019112446015701880C991CAA1CBB1C4A
:10135000E0915402F0915502EC70FF27EF2B11F051
:10136000C42E07C09AE0F594E794D794C7949A9551
:10137000D1F78C20C82CC826C22AC0921B0288E054
:1013800090E090930A018093090110925702109205
:10139000560280E190E0909308018093070110923B
:1013A00053021092520281E090E0EBC0209154026F
:1013B0003091550284E090E002C0880F991F2A9571
:1013C000E2F7092E000CAA0BBB0B8C219D21AE214C
:1013D000BF21892B8A2B8B2BB9F0209150023091A1
:1013E000510280914C0290914D0204C0F594E79413
:1013F000D794C7942A95D2F704C0F594E794D7946C
:10140000C7948A95D2F724C0D701C60104E0B595E8
:10141000A795979587950A95D1F740914C025091E1
:101420004D02209150023091510202C0440F551FCD
:101430002A95E2F7052E000C660B770B4C215D21F7
:101440006E217F21452B462B472B09F0CC0CC82A57
:10145000C0921B0288E090E090930A0180930901FA
:10146000109257021092560289E090E09093080182
:1014700080930701109253021092520285E090E08F
:1014800014CB80915402909155029701860104C0BB
:10149000000F111F221F331F8A95D2F7C901B8010F
:1014A000D6FC05C025E030E040E050E004C026E076
:1014B00030E040E050E0A0915402B091550200911C
:1014C0004C0210914D02E0915002F09151024D2CCE
:1014D0005E2C6F2C772467FC7A944D01BB0FAA0811
:1014E000BB08482059206A207B20D4E08D2E912C07
:1014F000A12CB12C84189508A608B7080E94800F6B
:10150000A50194010E94800F4B015C01A8EFBFEF81
:10151000A70196010E944A0FDC01CB0104C0B595DA
:10152000A795979587950A95D2F7BF0168237923E8
:1015300004C0B594A794979487946A95D2F716E05F
:10154000F594E794D794C7941A95D1F7C828C09218
:101550001B0287E090E090930A01809309011092AA
:1015600057021092560288E090E090930801809311
:10157000070181E090E090935302809352028FE044
:1015800090E0909306018093050186E090E09093AF
:101590004F0280934E0280911B028093B300809192
:1015A0001C0290911D02A0911E02B0911F02019693
:1015B000A11DB11D80931C0290931D02A0931E02D9
:1015C000B0931F028091190290911A020196811521
:1015D00014E0910729F090931A028093190260C0D9
:1015E00010921A02109219026091180281E0682785
:1015F0006093180286E00E94D00180914602882301
:1016000009F449C0809117028F5F809317028031DF
:10161000A1F0E0911702F0E0EE0FFF1FE05EFD4F3A
:1016200080819181A0E0B0E080931C0290931D0224
:10163000A0931E02B0931F022EC010921702C0E2A8
:10164000D2E080E4E82E82E0F82E812C912C540127
:101650008A94412C20E4522E612C712C0E94C60EDB
:10166000A50194010E941D0F603871058105910547
:101670006CF40E94C60E088119811052A3019201D8
:101680000E941D0F600F711F798368832296EC16EC
:10169000FD0621F7BECF8091400281110E94800299
:1016A000FF91EF91DF91CF91BF91AF919F918F917A
:1016B0007F916F915F914F913F912F911F910F916A
:1016C000FF90EF90DF90CF90BF90AF909F908F9062
:1016D0007F906F905F904F900F900FBE0F901F9074
:1016E0001895E3E6F2E01382128288EE93E0A0E020
:1016F000B0E084839583A683B78385E191E09183ED
:10170000808385EC90E09587848784EC90E09787D0
:10171000868780EC90E0918B808B81EC90E0938BBE
:10172000828B82EC90E0958B848B86EC90E0978B9B
:10173000868B118E128E138E148E80910B019091D8
:101740000C0190930103809300030895789484B56D
:10175000826084BD84B5816084BD85B5826085BDAD
:1017600085B5816085BD80916E00816080936E003B
:10177000109281008091810082608093810080912D
:1017800081008160809381008091800081608093DE
:1017900080008091B10084608093B1008091B0009E
:1017A00081608093B00080917A00846080937A0099
:1017B00080917A00826080937A0080917A008160C3
:1017C00080937A0080917A00806880937A001092EA
:1017D000C10061E08DE00E94FF0161E087E00E94AE
:1017E000FF0161E088E00E94FF0161E08CE00E945F
:1017F000FF0161E08AE00E94FF0161E086E00E9453
:10180000FF0161E085E00E94FF0162E082E00E944A
:10181000FF0162E083E10E94FF0161E08BE00E9432
:10182000FF018091B6008F798093B6008091B0005F
:1018300083608093B0008091B100877F8093B10076
:101840008091B0008F7B80688093B0008091B00061
:101850008F7C8093B0008091B100887F81608093FD
:10186000B1001092B300F89480918100877E886067
:1018700080938100809180008C7F80938000809194
:101880008100887F81608093810020910B013091DD
:101890000C01032E000C440B550B60E074E284EF46
:1018A00090E00E941D0F3093890020938800809162
:1018B0006F00826080936F0078940E948002C0E283
:1018C000D2E000E412E0CC24CA94DC2CE12CF12C10
:1018D0000E94C60EA70196010E941D0F699379937D
:1018E000882799274AE00E94C9020C171D0781F733
:1018F00011E000E1CC24CA9483E0D82EE12CF12C35
:10190000812C94E2992E94EFA92EB12C22242394B9
:10191000312C82E00E94A70120915902892BE1F528
:10192000211119C0109359022FB7F89480915F02CA
:1019300090916002A0916102B09162022FBF8093EA
:10194000470290934802A0934902B0934A0286E26C
:1019500091E00E940A032FB7F89480915F02909162
:101960006002A0916102B09162022FBF40914702D4
:10197000509148026091490270914A02841B950B74
:10198000A60BB70B81399140A105B105A0F180915B
:101990004B02811130C098C1222369F180914B0222
:1019A000882339F010924B028FE391E00E940A03E2
:1019B00020C080910001803121F08F5F8093000171
:1019C00002C01093000188E591E00E940A0383E7BA
:1019D00091E00E94B7026091000170E080E090E029
:1019E0004AE00E94C90283E291E00E94B7020E948D
:1019F00080021092590283E10E94A70120915802AF
:101A0000892B09F03DC0211119C0109358022FB73E
:101A1000F89480915F0290916002A0916102B09170
:101A200062022FBF8093420290934302A09344022C
:101A3000B09345028DE791E00E940A032FB7F89416
:101A400080915F0290916002A0916102B091620268
:101A50002FBF409142025091430260914402709125
:101A60004502841B950BA60BB70B81399140A1054C
:101A7000B10508F440C08091410281113CC034C1DD
:101A8000222329F180914102882369F010924102BA
:101A900085E991E00E940A03809100018F5F8093A5
:101AA000000181E015C080910001823020F081505A
:101AB0008093000104C0813011F40093000184EB95
:101AC00091E00E940A030E9480021092580280E076
:101AD0009091410291110FC090914B02992359F0BE
:101AE000882349F08EEC91E00E940A038091400225
:101AF0008127809340028091590281117BC080919F
:101B00005802811177C0C0910901D0910A0140901B
:101B1000560250905702052C000C660877080E9468
:101B20003B02AE01DD0F660B770B9A01AB01241966
:101B3000350946095709DC010E94470FA7019601A4
:101B40000E941D0F420E531E641E751E50925502B8
:101B500040925402C0910701D09108014090520276
:101B600050905302052C000C6608770881E00E9413
:101B70003B02AE01DD0F660B770B9A01AB01241916
:101B8000350946095709DC010E94470FA701960154
:101B90000E941D0F420E531E641E751E509251026C
:101BA00040925002C0910501D091060140904E0232
:101BB00050904F02052C000C6608770882E00E94C6
:101BC0003B02AE01DD0F660B770B9A01AB012419C6
:101BD000350946095709DC010E94470FA701960104
:101BE0000E941D0F420E531E641E751E50924D0220
:101BF00040924C02C0910B01D0910C01D093010393
:101C0000C093000383E00E943B029C012C1B3D0B10
:101C100037FF03C0319521953109253131050CF489
:101C2000CE0190930C0180930B01C817D907D1F016
:101C300020E03FE3DC010E94AA0FA70196010E9469
:101C40001D0FDA01C9019F5FAF4FBF4F9C01990F74
:101C5000440B550BC501B4010E941D0F3093890040
:101C60002093880080914B02882359F180E00E94E4
:101C70003B022EE030E0DC010E94AA0FA701960192
:101C80000E941D0FBA01A90147505109610971094C
:101C900080910301909104018417950721F05093DE
:101CA000020140930101509304014093030180918C
:101CB000010190910201892B21F4309202012092BE
:101CC00001010E94740125CE10934B0285ED91E035
:101CD0000E940A038091460281278093460289EE82
:101CE00091E00E940A0387CE109341028BEF91E0AE
:101CF0000E940A0300CF8F929F92AF92BF92CF9221
:101D0000DF92EF92FF92CF93DF93EC0168817981AC
:101D10008A819B81611571058105910521F464E239
:101D200079ED8BE597E02DE133EF41E050E00E9443
:101D30001D0F49015A019B01AC01A7EAB1E40E94C1
:101D40003C0F6B017C01ACEEB4EFA50194010E9445
:101D50004A0FDC01CB018C0D9D1DAE1DBF1DB7FFD1
:101D600003C00197A109B04888839983AA83BB83E4
:101D7000BC01CD019F77DF91CF91FF90EF90DF9075
:101D8000CF90BF90AF909F908F9008958F929F9229
:101D9000AF92BF92CF92DF92EF92FF9260910D01CE
:101DA00070910E0180910F019091100161157105E4
:101DB0008105910521F464E279ED8BE597E02DE151
:101DC00033EF41E050E00E941D0F49015A019B0191
:101DD000AC01A7EAB1E40E943C0F6B017C01ACEEC0
:101DE000B4EFA50194010E944A0FDC01CB018C0DD8
:101DF0009D1DAE1DBF1DB7FF03C00197A109B048CF
:101E000080930D0190930E01A0930F01B0931001E8
:101E1000BC01CD019F77FF90EF90DF90CF90BF90F6
:101E2000AF909F908F90089560930D0170930E0175
:101E300080930F01909310010895052E97FB1EF4D7
:101E400000940E94340F57FD07D00E944F0F07FCEB
:101E500003D04EF40C94340F509540953095219555
:101E60003F4F4F4F5F4F08959095809570956195C6
:101E70007F4F8F4F9F4F08950E94710FA59F900D28
:101E8000B49F900DA49F800D911D11240895B7FF5C
:101E90000C943C0F0E943C0F821B930B0895A1E20F
:101EA0001A2EAA1BBB1BFD010DC0AA1FBB1FEE1FD4
:101EB000FF1FA217B307E407F50720F0A21BB30B1F
:101EC000E40BF50B661F771F881F991F1A9469F79B
:101ED00060957095809590959B01AC01BD01CF01F7
:101EE0000895A29FB001B39FC001A39F700D811DF3
:101EF0001124911DB29F700D811D1124911D089513
:101F0000DB018F939F930E943C0FBF91AF91A29FE3
:101F1000800D911DA39F900DB29F900D11240895E7
:101F200097FB072E16F4009407D077FD09D00E9486
:101F3000B10F07FC05D03EF4909581959F4F089511
:101F4000709561957F4F0895EE0FFF1F0590F491F6
:101F5000E02D09940E94710FB7FF0895821B930B27
:101F60000895AA1BBB1B51E107C0AA1FBB1FA617E0
:101F7000B70710F0A61BB70B881F991F5A95A9F732
:101F800080959095BC01CD01089581E090E0F89492
:081F90000C94CA0FF894FFCF76
:101F980001010001006300630063000040010000CC
:101FA8000000000000FB0052029C004801CD00AB7D
:101FB80000BF000D0A0052494748542062757474E6
:101FC8006F6E2073686F727420707265737300523D
:101FD80049474854206C6F6E672070726573732090
:101FE80052454C4541534500524947485420627573
:101FF80074746F6E2073686F72742072656C65619B
:1020080073650050524F4752414D3A20004C4546A7
:102018005420627574746F6E2073686F72742070C8
:1020280072657373004C45465420425554544F4EC4
:10203800206C6F6E672070726573732072656C65B3
:10204800617365004C45465420425554544F4E2008
:1020580073686F72742072656C65617365004841BE
:10206800434B4B4B005249474854206C6F6E6720D6
:102078007072657373204F4E00546F67676C6520EC
:1020880073657175656E63696E67004C45465420CB
:10209800425554544F4E206C6F6E672070726573B2
:0620A80073204F4E000002
:00000001FF
